:020000040800F2
:10000000981700204D2E0008512C0008532C000892
:10001000552C0008572C0008592C0008000000003F
:100020000000000000000000000000005B2C000841
:100030005D2C0008000000005F2C0008612C000807
:10004000712E0008752E0008792E00087D2E0008FC
:10005000812E0008852E0008892E00088D2E0008AC
:10006000912E0008952E0008992E00086F2C00088C
:100070009D2E0008A12E0008752C00087B2C00087E
:10008000812C0008872C00088D2C0008A52E000864
:10009000A92E0008AD2E0008B12E0008B52E0008CC
:1000A000B92E0008BD2E0008C12E0008C52E00087C
:1000B000C92E0008CD2E0008932C0008D12E000870
:1000C000D52E0008D92E0008DD2E0008E12E0008EC
:1000D000E52E0008992C0008AD2C0008E92E000838
:1000E000ED2E0008F12E0008F52E0008F92E00086C
:1000F000FD2E0008012F0008052F0008092F000819
:100100000D2F0008112F0008B32C0008152F000830
:10011000192F00081D2F0008212F0008252F000887
:10012000292F00082D2F0008312F0008352F000837
:1001300038B5040001D1012032BD00F022F808B921
:1001400000F023F800F013F800F024F8FFE7416115
:1001500000F001F832BD2068C16841F40051C1606F
:100160000020686020206870A8700020704724205C
:1001700068702068C16821F40051C160204600F019
:100180006EBA04F13805687870470021297020465E
:1001900000F003BB2068016921F4904101612068EF
:1001A000416921F02A0170472DE9F843054605F120
:1001B00038070C4678782028164698463CD1002C03
:1001C00014BF002E012038D03878012834D0012106
:1001D0003970212000217960787000F0B1FBAE8485
:1001E0008146EE8403E0296814F8010B4860E88C2E
:1001F00028B3E98C481EE8844B46A868CDF80080F7
:10020000B0F5805F0DD100F024F870B9208829681E
:10021000C0F3080048602869002814BF641CA41CAF
:10022000E5E700F016F80028DDD0032005E02020E7
:1002300078700020387000E00220BDE8F283CDF82D
:1002400000804B460022402100F005F80028EED047
:10025000EBE700228021284667E138B5044604F127
:1002600038051346A87820283ED109B1180001D1DD
:10027000012032BD2878012836D001222A70A162DF
:10028000A385002068602220A870626B0FF2112005
:100290009062626B0FF24120D062626B0FF24120DC
:1002A00010630020626B50630A462068011D606B7A
:1002B00000F08FFB002000902068016800914268E8
:1002C0000092002200992A70C26842F48072C260D3
:1002D0002068416941F0010141612068416941F0B4
:1002E00040014161002032BD022032BD38B50446D4
:1002F00004F13905206841692A78212A09D10906C3
:1003000007D500F017F808B100F09DFB204600F07B
:100310003EF9206841696A78222A09D1490607D541
:1003200000F00EF808B100F08EFB204600F038F91E
:10033000002032BD416921F080014161206B70478E
:10034000416921F040014161606B704738B5044656
:1003500025682968EA686B6911F00F0007D18806E3
:100360005DD590065BD52046BDE832402CE1D8072C
:1003700002D412F4907F52D0C80705D5D00503D51A
:10038000E06B40F00100E063480705D5D80703D5CE
:10039000E06B40F00200E063880705D5D80703D57D
:1003A000E06B40F00400E063080705D5D80703D5EB
:1003B000E06B40F00800E063E06B00286ED0890637
:1003C00004D5900644BF204600F0FEF8206840693E
:1003D000E16B0A0701D440061BD5204600F0E0F887
:1003E000206841694A060FD5FFF7AAFF60B10FF2F6
:1003F000CD114163606B00F03FFB00284ED0606B75
:10040000416BBDE8344008472046BDE8324000F06B
:10041000AEBC204600F0ABFC0020E06331BD080616
:100420002CD510062AD594F83900212836D1A16898
:10043000206AB1F5805F0DD10188C1F308016960C0
:10044000206918B9216A881C206207E0206A411CD3
:10045000216203E0411C216200786860E08C401E4C
:10046000E08480B2D0B92068C16821F08001C16009
:100470002068C16841F04001C16031BD48060DD51A
:1004800050060BD5E86820F04000E860202184F891
:1004900039102046BDE8324000F06ABC31BD000092
:1004A000416A00680268930613D40020C885086872
:1004B000C26822F48072C260086842695208520021
:1004C00042610868426922F040024261202081F8BE
:1004D0003A00084600F04DBC406A00F04BBC0000FA
:1004E00038B5446A2068406904F139052978212922
:1004F00006D1000604D50020E084204600F047F82D
:10050000206840696978222906D1400604D5002078
:10051000E085204600F044F8E06B40F01000E06316
:100520002046BDE8324000F022BC2DE9F041069C97
:1005300005460E4690461F46286801683140B14284
:100540000CBF01200020404517D114F1010FF3D05A
:1005500024B100F0F5F9C01B8442EDD22868C168CF
:1005600021F4D07100F00CF805F138002021417021
:10057000817000210170032000E00020BDE8F081BF
:10058000C1602868416949084900416170470168B4
:10059000CA6822F0C002CA60202180F83910704772
:1005A0000168CA6822F49072CA6001684A695208F8
:1005B00052004A61202180F83A107047406A0021B9
:1005C000C185C18400F0D3BB80B590F83A102229D0
:1005D00043D18268B2F5805F14D1826A016941B962
:1005E00003685968C1F308011180826A911C816215
:1005F00018E001684B6803F0FF031380816A4A1C0E
:1006000082620FE001690029816A04D14A1C82627A
:100610000268536805E04A1C82620268536803F06E
:100620007F030B70C18D491EC18589B299B90168DC
:10063000CA6822F02002CA600168CA6822F4807287
:10064000CA6001684A69520852004A61202180F854
:100650003A1000F08EFB002002BD022002BD2DE901
:10066000F0470446642521680A69E06822F4405294
:1006700002430A611926CA6831480240A068024351
:100680002069024360690243CA604A69A06922F492
:10069000407202432B484A6181420ED100F0B2FD04
:1006A000074600F0AFFD804600F0ACFD814600F04B
:1006B000A9FD824600F0A6FD0DE000F09BFD074677
:1006C00000F098FD804600F095FD814600F092FD17
:1006D000824600F08FFD06FB09F9616889007743C7
:1006E000B7FBF1F206FB08F7B7FBF1F3B9FBF1F743
:1006F000B7FBF5F705FB17331B013233B3FBF5F3FB
:10070000B2FBF5F203F0F00303EB021306FB0AF76A
:100710004643B7FBF1F2B6FBF1F06421B0FBF1F018
:1007200005FB10252D0132356420B5FBF0F0216862
:1007300000F00F00C3188B60BDE8F08700000000D8
:10074000F3E9FFFF0038014080B56848684900F0D0
:1007500011F818B1BDE8044048211AE001BD80B588
:100760006448654900F006F818B1BDE804405B2113
:100770000FE001BD01604FF4E13141600021816073
:10078000C16001610C21416100218161C161FFF7FC
:10079000CFBC0FF2781000F0C3BE2DE9F84104463B
:1007A00085B02068524A554D0FF26018544F554E8F
:1007B000554990423FD1086840F4804008600222C9
:1007C000096801F4804104914FF4007100F085F84C
:1007D0004FF4806000F078F805F1140038600020D4
:1007E0007860B8608020F860002038617861B86176
:1007F000F861384600F0AAF810B1862100F061F8DF
:1008000010206763B8647C620020F8647D648020F7
:10081000386500207865B865F865386607F14400EA
:1008200000F094F810B1962100F04BF807F1440065
:100830002063BC6642E0304A90423FD1486840F4B1
:10084000003048600222486800F40030049004211F
:1008500000F043F8082000F037F807F1880605F1AA
:100860002800306000207060B0608020F0600020C0
:1008700030617061B061F061304600F067F810B12E
:10088000C12100F01EF86663746205F13C007064DB
:1008900007F1CC051020B0640020F06480203065A2
:1008A00000207065B065F0653066284600F04EF8AF
:1008B00010B1D12100F005F82563B46606B0BDE89B
:1008C000F081404600F02CBE0090002101200191F3
:1008D00002906946304600F025BE0498009103203E
:1008E000039001926946304600F01CBE9012002031
:1008F00000380140D0120020004400404400024073
:10090000101000200008014018100240453A5C55C4
:10091000736572735C626572747A5C446F63756D43
:10092000656E74735C4769744875625C42535076B7
:10093000312E345C5372635C75736172742E630084
:1009400001480068704700BF9013002030B508B917
:10095000012030BD0268DFF8B0138A4200F128039D
:1009600006D2DFF8A81300F02DF8DFF8A41305E095
:10097000DFF8A01300F026F8DFF89C13596102217C
:1009800080F82110146841686FF30D140C438168DE
:100990000C43C1680C4301690C4341690C438169F4
:1009A0000C43C1690C4314600021196059609960BF
:1009B000D9601961012180F82110002180F82010F0
:1009C000002030BD8C181425B4FBF5F4A4009C6104
:1009D0007047F8B50446002594F82000012801D19D
:1009E0000220F2BD94F821000126012884F820603D
:1009F00024D1022684F8216004F12C06F5602068D9
:100A000007687F087F000760204600F09FF9216893
:100A1000306820B10A6842F00E020A6008E00868F7
:100A200020F0040008602068016841F00A010160BC
:100A30002068026842F00102026002E084F820505F
:100A400002252846F2BD10B501680A6822F00E02A0
:100A50000A6000F13C020B685B085B000B6001243C
:100A600051688C4011684C600122002180F82120DF
:100A700080F82010002010BDF8B590F82120002447
:100A8000022A00F1340103D00420486001245FE011
:100A90000268DFF88862136823F00E0313604FF4D6
:100AA0008077026815686D086D0015604FF480321C
:100AB0000368B3424FF4805519D9DFF84C62B34252
:100AC00008BF012210D0DFF85862B34208BF1022DD
:100AD0000AD0DFF85062B34208BF3A4604D0DFF8CC
:100AE0004862B34208BF2A46DFF8403227E0DFF809
:100AF00040C263451CD0DFF83CC263451AD0DFF822
:100B000038C2634518D0DFF83472BB420EBF2A46A4
:100B1000DFF82C52AB4210D0DFF82852AB4208BFAE
:100B20004FF4801209D0B34207D14FF0807204E035
:100B3000012202E0102200E03A46DFF80C321A608F
:100B4000012280F8212080F82040096801B18847FF
:100B50002046F2BD2DE9F84F00F128020427516923
:100B6000734BD1F800E004686C4925689669DFF89A
:100B7000BC81DFF8B491DFF8ACA1DFF8A4B1DFF8F5
:100B800088C1B7401EEA070F4AD06F0748D52568CD
:100B9000AD0603D4256825F0040525604FF48024B4
:100BA00007688F424FF480454FF4806611D967453E
:100BB00008BF04240AD05F4508BF402406D057452B
:100BC00008BF344602D04F4508BF2C46C8F8004045
:100BD00020E09F4217D0574B9F4216D0564B9F4262
:100BE00015D0564B9F420EBF2C46554B9F420FD0FF
:100BF000544B9F4208BF4FF4800409D08F4207D165
:100C00004FF0806404E0042402E0402400E0344615
:100C10004D490C605168002974D0BDE8F44F084775
:100C20000227B7401EEA070F4FD0AF074DD5256802
:100C3000AD0606D4256825F00A052560012480F854
:100C400021404FF4003407688F424FF400554FF4B1
:100C5000007611D9674508BF02240AD05F4508BF56
:100C6000202406D0574508BF344602D04F4508BF60
:100C70002C46C8F8004020E09F4217D02D4B9F42E1
:100C800016D02D4B9F4215D02C4B9F420EBF2C46A9
:100C90002B4B9F420FD02B4B9F4208BF4FF40014A9
:100CA00009D08F4207D14FF0007404E0022402E023
:100CB000202400E0344624490C60002180F82010F4
:100CC0001168F9B1BDE8F44F0847082101FA06F6AA
:100CD0001EEA060F16D0290714D5216821F00E014F
:100CE0002160012391698B4051694B6001230021F0
:100CF000136180F8201080F82130916811B1BDE8AF
:100D0000F44F0847BDE8F18F08040240F8FFFDBF2B
:100D100000000240F8FBFDBF0004024080000240DA
:100D20001C04024030040240440402400404024017
:100D3000080002401C000240300002404400024013
:100D4000580002406C0002400400024038B5046CB8
:100D50000125A540C46B6560046863604068102885
:100D600002D1A260E16031BDA160E26031BD704797
:100D700070477047704700002DE9F8430646DFF8DA
:100D800098543078C1074AD5686800F00C000428F0
:100D900007D0686800F00C0008280BD16868C10310
:100DA00008D5296888033AD57068002840F0C080CB
:100DB000012069E17068B0F5803F0FD038B929682B
:100DC00021F480312960286820F4802009E0B0F502
:100DD000A02F296807D141F480212960286840F4B8
:100DE0008030286006E021F4803129602A6822F4EE
:100DF00080222A60706868B1FFF7A2FD0446296866
:100E0000880300F19580FFF79BFD001B6528F6D352
:100E1000032039E1FFF794FD04462868810340F17F
:100E20008780FFF78DFD001B6528F6D3F0E7FFF7FD
:100E300087FD001B022840F2AA80E9E7306970B103
:100E400001213960FFF77CFD04462868810700F125
:100E5000DC80FFF775FD001B0228F6D9D8E7386063
:100E6000FFF76EFD04462868810765D5FFF768FD2A
:100E7000001B0228F7D9CBE70860FFF761FD0446A5
:100E8000686A810777D5FFF75BFD001B0228F7D959
:100E9000BEE708B9286A09E00528286A06D140F0AB
:100EA00004002862286A40F0010005E04008400084
:100EB0002862286A20F00400286241F28938F0682C
:100EC00068B1FFF73DFD8146286A810700F1AA80DD
:100ED000FFF736FDA0EB09004045F5D398E7FFF793
:100EE0002FFD8146286A810740F19C80FFF728FD8D
:100EF000A0EB09004045F5D38AE7FFF721FD001B71
:100F0000022840F2A28083E7FFF71AFD001B0228A7
:100F100040F2B5807CE700F0B9F80446286881010A
:100F200040F1B180FFF70CFD001B0228F6D96FE7F6
:100F30003078DFF8F07281071BD5686810F00C0F6D
:100F400009D0686800F00C0008287FF477AF686863
:100F5000C1033FF573AF2968880703D530690128BD
:100F60007FF426AF2968706921F0F80141EAC001D9
:100F70002960317808071DD5B069DFF8AC12002868
:100F80003FF47AAF01220A60FFF7DAFC0446686A90
:100F900081077FF54CAFDFF884120868C0084FF472
:100FA0007A72B0FBF2F2009200BF0098411E002856
:100FB0000091F9D13078410739D5E8690024C100A2
:100FC00009D4E86940F08050E8610124E86900F044
:100FD000805000900098DFF85482D8F80010C805BF
:100FE0001BD4D8F8000040F48070C8F80000FFF768
:100FF000A7FC8146D8F80010C8050ED4FFF7A0FC66
:10100000A0EB09006528F5D302E72868716920F094
:10101000F80040EAC1002860ABE7F06801287FF4DF
:1010200038AF3FE71CB1E86920F08050E861F06913
:1010300048B3696801F00C0108293FF4B9AE0228F1
:101040007FF469AF00F022F80446286881013FF57B
:1010500054AF306AB0F5803F05D16968B06821F4BB
:101060000031014369606968306A21F474110143F9
:10107000706A01436960012000F009F8044628689D
:1010800081017FF541AF0020BDE8F2830020386682
:10109000FFF756BC2DE9F843654F05463868894689
:1010A00000F00700484502D200F07AF86CD12978A8
:1010B000594C880705D56168A86821F0F001014303
:1010C00061602878C10757D56868012802D1216876
:1010D0008A0303E0022803D121688A0103D453E084
:1010E0002268910750D56168890840EA81006060F4
:1010F00041F28938FFF724FC0646686801280BD1C5
:10110000606800F00C00042836D0FFF719FC801B43
:101110004045F5D303202DE0022837D1606800F068
:101120000C00082828D0FFF70BFC801B4045F5D3A6
:10113000F0E72878410705D56168E86821F4E061A7
:10114000014361602878010706D56068296920F4A9
:10115000605040EAC100606000F02CF862683549D8
:10116000C2F30312895C2D4AC8401060002000F0D1
:10117000D3FA0020BDE8F283386800F0070081450B
:10118000D7D200F00DF8D4D00120F3E7606810F05A
:101190000C0FF1D0FFF7D4FB801B4045F6D3B9E725
:1011A0003968C90849EAC1013960386800F00700A8
:1011B0004845704720490A6802F00C00082814D1FD
:1011C0000FF28003C2F38340D203185C0AD509688A
:1011D0000FF28003124AC1F34041595CB2FBF1F1B6
:1011E000484370471549484370470D4870470B48BE
:1011F000006870470948104A006813681049C3F333
:10120000022206E005480C4A006813680C49C3F343
:10121000C222895CC84070470010024000000020D4
:1012200000127A00000042428004424200700040F6
:10123000002002403C2D00080410024000093D003F
:10124000682E000802030405060708090A0B0C0DA6
:101250000E0F10100102000010B500F071FA00F03E
:1012600080F800F07FFA00F0FDFA00F00BFB00F0D0
:101270009FFB00F0FBFB00F067FC00F085FCFFF734
:1012800063FAFFF76CFA00220021252000F012FD1E
:10129000252000F02CFD00220021262000F00AFD70
:1012A000262000F024FD00220021322000F002FD63
:1012B000322000F01CFD002200211E2000F0FAFC6C
:1012C0001E2000F014FD002200210B2000F0F2FC93
:1012D0000B2000F00CFD002200210E2000F0EAFCA3
:1012E0000E2000F004FD002200210F2000F0E2FC9F
:1012F0000F2000F0FCFC00220021102000F0DAFC9E
:10130000102000F0F4FC00220021112000F0D2FC9B
:10131000112000F0ECFC00220021122000F0CAFC99
:10132000122000F0E4FC7848784C00F028FD784862
:1013300000F025FD00F0CCFE00F0D0FF01F0F6F843
:1013400000F027FF00F07AFF01F012F8201D01F0F5
:10135000B1F820780028F3D001F0EFF800212170D7
:10136000EEE700B5002195B001200D910B90022110
:1013700012914FF480300C90012213904FF4E01141
:101380000F9214910BA8FFF7F7FC00B1FEE70F21B5
:1013900002200091019000214FF48060029103909F
:1013A000049168460221FFF775FE00B1FEE70220B6
:1013B00005904FF40041079105A801F0F1F800B144
:1013C000FEE7FFF714FF4FF47A71B0FBF1F000F085
:1013D00098FC042000F0A9FC002200214FF0FF300F
:1013E00000F068FC15B000BDF8B506464648326806
:1013F0000168484C914204F1240541D1464F102127
:10140000384600F05AF968700821384600F055F95E
:10141000E87069782878014311D1607A401C6072C5
:10142000C0B215280EDB0120207000206072E07829
:1014300040B90121E170A07000F09CFE02E00020A4
:1014400020706072E978A878014312D1A07A401C1C
:10145000A072C0B215280FDB012060700020A072BE
:10146000E078012808D10020E170A07000F082FE31
:1014700002E000206070A07268782870E878A87098
:1014800023483268016891423CD1EA88521C92B2EA
:10149000322092FBF0F0322101FB102010B91B48E2
:1014A0000126067041F28930824202DB0120287158
:1014B0000022EA801021194800F0FFF8207500286A
:1014C00004BF617D002910D1E07EA0B9A07D218BF1
:1014D000401CA075C0B281420DD2A07E58B9012136
:1014E000A176A075E176217305E000202073A07538
:1014F000608301202077207D6075206A512824BFF9
:10150000401E2062F1BD0000101200206C1300206C
:101510005012002040130020000C01400010014038
:10152000FEE700002DE9F84F83460F460020804675
:101530006A496B4A6B4B4FF00F094FF0010A3C6848
:101540000AFA08F606EA040EB64540F0AE807C685A
:101550003CB3012C1AD0022C1DD0032C2ED0112C00
:1015600016D0122C1AD0604DAC421CBF5F4DAC425D
:1015700017D05F4DAC421CBF5E4DAC4211D05E4DEA
:10158000AC421CBF5D4DAC420BD018E0F86816E0D1
:10159000F868001D13E0F868083010E0F8680C30B7
:1015A0000DE0B86808B9042009E0012819BF082037
:1015B000CBF814600820CBF8106000E00020BEF5E6
:1015C000807F03D2DC464FEA880404E0A8F10804D7
:1015D0000BF1040CA400DCF8005009FA04F6B54342
:1015E00000FA04F42C43CCF800407C68E4005CD59D
:1015F0001C6844F001041C604FEA980C1D6805F05B
:1016000001050095009C52F82C604FEA880404F014
:101610000C0409FA04F526EA0505394EB34508BF5E
:10162000002618D0374EB34508BF012613D0364EDA
:10163000B34508BF02260ED0344EB34508BF03267B
:1016400009D0334EB34508BF042604D0314EB3450C
:101650000CBF0526062606FA04F42C4342F82C405B
:101660006FEA0E067C68E50304D50D684EEA0505B1
:101670000D6002E00C6834400C607C68A5034C6887
:101680004CBF4EEA040434404C607C68E5028C6830
:101690004CBF4EEA040434408C607C68A502CC68E0
:1016A0004CBF4EEA04043440CC6008F10108B8F1A4
:1016B0000F0F7FF644AFBDE8F18F8068084018BF78
:1016C0000120C0B2704781B002B90904016101B0C4
:1016D0007047C2685140C16070470000000401407B
:1016E0000800014018100240000011100000121004
:1016F0000000211000002210000031100000321004
:1017000000080140000C014000100140001401409D
:1017100000180140001C014010B508490A68044641
:101720004FF47A70B2FBF0F000F0EBFA00222146A1
:101730004FF0FF3000F0BEFA002010BD0000002086
:1017400080B50748016841F010010160032000F0F6
:10175000A4FA0020FFF7E0FF00F096FF002002BD92
:101760000020024078B53548354C364D85B00168CB
:1017700041F01001016042F2C606026802F0100258
:1017800004920499016841F020010160026802F0AE
:10179000200204920499016841F00401016002688A
:1017A00002F00402049200220499016841F0080149
:1017B00001603146006800F008000490049820465B
:1017C000FFF781FF00224FF432412846FFF77BFFED
:1017D0000120022101900391009600F03FF84FF4A0
:1017E000887000900021012000F036F889200090D8
:1017F0000021012000F02AF84FF43240009001212E
:1018000002200191039000F023F84FF40070009043
:101810000021022000F020F8042000210090019116
:10182000029169460848FFF77DFE102000900021D4
:10183000022000F00BF806B070BD00001810024046
:1018400000100140000C0140001401400191029081
:1018500069462846FFF766BE019102906946204618
:10186000FFF760BE064881B0016841F001010160E8
:10187000006800F001000090009801B0704700BFC0
:10188000141002403EB5374C37480FF2F005206087
:101890004FF48070A0600020E06060614FF4602031
:1018A000E0610020606002202061204600F032FFED
:1018B00018B145212846FFF733FE0D200090012185
:1018C0000720019102906946204601F023F818B1E3
:1018D0004F212846FFF724FE10200221009001919D
:1018E0002046694601F016F818B158212846FFF73E
:1018F00017FE37BD30B5044685B020681A498842C6
:101900002ED11A481A4D016841F400710160082176
:10191000006800F4007000900322009815480191BF
:10192000029201A9FFF7FEFD00206860A8608020F8
:10193000E8604FF4007028614FF400606861202077
:10194000A86100200C49E86129602846FEF7FEFFE7
:1019500020B17C210FF22400FFF7E2FD25626C62CA
:1019600005B030BD101300200024014018100240C3
:10197000CC1100200010014008000240453A5C559F
:10198000736572735C626572747A5C446F63756DC3
:10199000656E74735C4769744875625C4253507637
:1019A000312E345C5372635C6164632E630000000B
:1019B00080B51C481C4901601C49416000218160C0
:1019C000C1604FF480410161002141618161C161C9
:1019D000016201F04DF830B1BDE8044042210FF240
:1019E0005800FFF79DBD01BD00680F49884200D037
:1019F0007047F8B54FF44061009112200321019027
:101A0000039169460A48FFF78DFD0A48016841F4D1
:101A100080010160006800F480000090009805B02B
:101A200000BD00007811002000580040A086010091
:101A3000000C01401C100240453A5C5573657273FE
:101A40005C626572747A5C446F63756D656E747305
:101A50005C4769744875625C42535076312E345C41
:101A60005372635C6932632E6300000080B52548C1
:101A7000254901604FF482714160002181604FF47B
:101A80000061C1600021016141614FF40071816119
:101A90000821C16100210162416281620A21C162A3
:101AA00001F056F830B1BDE8044045210FF2640062
:101AB000FFF736BD01BD00681349884200D070476A
:101AC00018B51248124C85B0016841F4805101608C
:101AD000A021006800F4805000900222009801913B
:101AE00003200490029201A92046FFF71BFD40202D
:101AF0000021019002910391204601A9FFF712FDF8
:101B000006B010BD20110020003001401810024026
:101B100000080140453A5C55736572735C626572FA
:101B2000747A5C446F63756D656E74735C47697439
:101B30004875625C42535076312E345C5372635C5C
:101B40007370692E630000003A4838B53A4C0FF2C2
:101B5000F805206086B0472060600020A060632008
:101B600000F03DF810B1402100F036F800F02DF8FB
:101B700010B1462100F030F800F038F810B14D21D6
:101B800000F02AF807B030BD2C4838B52C4C0FF2C5
:101B9000B805206086B0472060600020A06040F259
:101BA000E73000F01CF810B15F2100F015F800F0EC
:101BB0000CF810B1652100F00FF800F017F810B123
:101BC0006C2100F009F807B030BD4FF4805002904E
:101BD00002A9204600F094B92846FFF7A1BCE060B6
:101BE00000202061A061204600F0BCB800200090D9
:101BF00001906946204600F0EDBF81B000680D4AB3
:101C00001049904207D1086840F004000860096854
:101C100001F0040109E0094A904208D1086840F047
:101C200008000860096801F008010091009801B0FF
:101C3000704700000008004010120020000C004017
:101C4000501200201C100240453A5C5573657273B7
:101C50005C626572747A5C446F63756D656E7473F3
:101C60005C4769744875625C42535076312E345C2F
:101C70005372635C74696D2E6300000009010028D3
:101C800081B006D52F4A00F00F00104400F8041C64
:101C900001E02D4A115401B070472C4A13684FF6E9
:101CA000FF0100020B4000F4E0601843284908439C
:101CB0001060704738B5254B1C68C4F30223C3F18C
:101CC0000704052C28BF04241D1D072D34BF002345
:101CD000DB1E012505FA04F4641E2140994005FA33
:101CE00003F35B1E1A401143BDE83440C6E70122EE
:101CF00000F01F01174BFFE78A40400943F82020FE
:101D0000704710B5401EB0F1807F01D3012010BD97
:101D1000114C60600F214FF0FF30FFF7AFFF002242
:101D2000A26007202060002010BD04280A4904D1C9
:101D3000086840F00400086070470A6822F0040256
:101D40000A60704718ED00E000E400E00CED00E0F0
:101D50000000FA0500E100E010E000E000F000B84B
:101D60007047000038B5040001D1012032BD00F0F9
:101D70001FF818B900F018F8FFF73FFF0AE00068F5
:101D8000C16841F00101C160026842F001020260D5
:101D90000020704702206870211D206800F01BF9A8
:101DA00001206870002032BD002129702046704754
:101DB00004F13C056878704710B504462068016955
:101DC0008A0715D5C1688A0712D56FF00202026131
:101DD00001212177806910F0030F204602D000F026
:101DE0001EFF03E000F01CFF00F087F800202077C2
:101DF000206801694A0715D5C1684A0712D56FF0F6
:101E00000402026102212177806910F4407F20469C
:101E100002D000F004FF03E000F002FF00F06DF8D4
:101E200000202077206801690A0715D5C1680A07D4
:101E300012D56FF00802026104212177C06910F009
:101E4000030F204602D000F0EAFE03E000F0E8FEB7
:101E500000F053F80020207720680169CA0615D5E4
:101E6000C168CA0612D56FF01002026108212177FD
:101E7000C06910F4407F204602D000F0D0FE03E09D
:101E800000F0CEFE00F039F80020207720680169CC
:101E9000CA0708D5C168CA0705D56FF001020261FB
:101EA0002046FFF7A1FA206801690A0608D5C16833
:101EB0000A0605D56FF080020261204600F0B1FEEF
:101EC000206801694A0608D5C1684A0605D56FF041
:101ED00040020261204600F0A5FE206801698A06E2
:101EE0000AD5C1688A0607D56FF020020261204634
:101EF000BDE8104000F097BE10BD204600F094BE33
:101F000038B500F05DF801D1022032BD0122227007
:101F1000022060702A68DFF8340193680340936000
:101F20000868002837D0102837D0202837D030282C
:101F300037D040282BD050281ED0602820D07028C1
:101F40000BD0B0F5805F03D0B0F5005F0CD02CE073
:101F500028688168C908C9000CE000F028F82868E2
:101F6000816841F0770105E000F021F82868816878
:101F700041F48041816018E000F01EF8502111E02A
:101F8000CA684968286800F07CF860210AE000F01F
:101F900013F8402106E0002104E0102102E0202196
:101FA00000E03021286800F07EF80FE00000CB68E8
:101FB0004A68896828687EE0CA684968286851E0EC
:101FC000054605F13C042078012870470120607027
:101FD0000020207032BDF0B5DFF874C01D4F0368DB
:101FE0001D4C1E4D1E4E604518BFB84208D0B0F1C2
:101FF000804F18BFB04203D0A84218BFA0420DD1F5
:102000004A6823F070031343604518BFB84207D0F5
:10201000B0F1804F1CBFB042A84201D0A04203D112
:10202000CA6823F4407313434A6923F080031343BF
:10203000036060458A68C2620A68826212BFB84261
:102040000969016301214161F0BD00008800FFFFC3
:10205000002C014000340140000C0040000800400A
:102060000004004010B5036A046A64086400046256
:1020700023F00A03846924F0F00444EA0214846122
:1020800023E010B5036A23F0100303628369046A36
:1020900023F4704343EA023324F0A004836144EA4A
:1020A0000114046210BD826822F07002114341F0F5
:1020B00007018160704710B5846824F47F44214390
:1020C000114341EA0321816010BD1943016210BD33
:1020D00010B501224FF400416248634CFFF7F3FA58
:1020E000012240212046FFF7EEFA012200F00EF80F
:1020F0005E480021418041814172417481736420B6
:1021000000F093FD002010BD574C00228021204696
:10211000FFF7D9BA00F038F8002240212046FFF737
:10212000D2FA002010BD70B5044620004D4D4E4E31
:1021300006D100F015F8002200F017F800F00BF8B7
:10214000012C06D100F00CF8012200F00EF800F08E
:1021500002F8002070BD002240213046FFF7B3BADC
:10216000002280213046FFF7AEBA4FF400412846E6
:10217000FFF7A9BA10B53C4C0122FFF7C7FF0122B7
:1021800000F002F80122C8E74FF400413548FFF79C
:102190009ABA10B5354CA07B00284DD160782178D3
:1021A000D1B118B1FFF7E6FF012010BD207B002858
:1021B00042D1E07B08B10021E173217C012904BFF9
:1021C000A078002803D1E178012936D132E000203F
:1021D000E073012020742FE0E17B60B121B1E07851
:1021E00010B9012121720AE0207C28B300210020CF
:1021F0002174E07310BDA07819B1A8B1002020743B
:1022000010BD217C79B158B1207BB0B1FFF7B2FF8E
:102210000021A1700120E07300201549C87110BD94
:102220000120E07007E038B90020E0700120E07381
:102230000020207401202072002010BD10B50B4C2E
:10224000217A59B1A07810B10021217206E0012055
:10225000A070E078FFF767FF00202072002010BD1B
:1022600000000000000C014000100140401300205D
:102270005413002010B502460123107803E09BB2EE
:10228000D45C60405B1C9CB28C42F8D3C0B210BDE1
:102290001CB500680168CA061FD5002000909B4C41
:1022A0002068016800914068009020460099FEF780
:1022B0001DF8606B016848689549C0F5006048806A
:1022C00002B0087840F0010001F8040B4FF40062FE
:1022D0002046BDE81040FDF7C0BF13BD80B58B4858
:1022E0000168CA6842F01002CA604FF4006289496E
:1022F000FDF7B3FF002202218748FFF7E4F9874981
:102300005B2008705B21864801705D2141710020CF
:1023100002BDF8B504460D4616467F4F0122022144
:102320003846FFF7D0F933462A4621467748FDF76D
:102330003BFF0446002202213846FFF7C4F9200083
:1023400018BF01242046F2BD10B5754CC17A6170EA
:10235000017BA1700321407BE070601CFFF78AFFC6
:1023600020714FF6FF722046BDE810400621D0E7ED
:10237000F8B5674A1078C10735D500F0FE00107037
:10238000684CA07C002804BFE07C00282BD1E588A5
:10239000208A5188614BA84226D228B3002001E050
:1023A000401C80B288421EDA268A02F1040E5F1DAC
:1023B00000EB060C1EF800E007F80CE0761C268205
:1023C000B6B2B542ECD1511D0E5C26711044807935
:1023D0005D2859D1ED1DE91E258100F068F886427F
:1023E00060D10120E07460E0208900285DD115797A
:1023F0005B2D5BD1507900F0F005A02D04BF567A1B
:102400005D2E0FD1E072032190792073D079607333
:10241000501D157AA573FFF72DFF854245D1012088
:10242000207542E0207096796670D779E770157A4A
:10243000A5701D7158709E70DF7005EB0725E58053
:10244000E08860B9907A5D282FD10720557A2081E5
:102450002571042100F02CF88542C2D022E0052528
:1024600001E06D1CADB28D421FDA161D765D5E5522
:10247000268A761CB7B2B8422682F2D102F10A014E
:10248000B6B2895D5D2903D000202082E08009E09A
:10249000511DC01D4D5D2081C11E257100F007F842
:1024A00085429ED000202081F2BD0020F2BD89B27D
:1024B000581CDFE638B504460025E07C012823D10E
:1024C000217801F0F001B02912D1AB20E072207820
:1024D000B2280ED1022121731349887828B901222C
:1024E000CA7308740A72CD7003E00120607300E0C3
:1024F00004252046FFF728FF0020A072E074E0804A
:10250000E070A07020822081284632BD9012002009
:102510000C080020100800200010014004000020DA
:102520008813002070130020401300200022FFE7D2
:102530004FF400711748FFF7C6B838B51749164C65
:10254000087B144D80B14FF400512846FFF7C1F8C5
:102550004FF480512846FFF7BCF82046BDE83440D0
:102560004FF40051FFF7B5B801224FF4005128464F
:10257000FFF7A9F800224FF480512846FFF7A3F88F
:102580002046BDE8384001224FF40051FFF79BB8C8
:1025900000000000000C014000100140401300202A
:1025A0002DE9FC410646354D3078C10750D5A86964
:1025B0000024C10009D4A86940F08050A86101241A
:1025C000A86900F08050009000982D4F3968C80528
:1025D00017D4386840F480703860FEF7B1F980464F
:1025E0003968C8050DD4FEF7ABF9A0EB08006528E3
:1025F000F6D303203FE0FEF7A3F9C01B404519D3F3
:10260000F7E7E86910F440701EBF716801F440718B
:10261000884212D01B49E86901220A6020F4407008
:1026200000220A60E861C00707D5FEF789F907466E
:1026300041F28938E8698107DDD5E969706821F4DC
:1026400040710143E9611CB1A86920F08050A86184
:102650003178880705D52A68B06822F440420243E1
:102660002A603078C10605D52968706921F4800197
:10267000014329600020BDE8F681000004100240FB
:10268000007000404004424280B52048016841F09B
:1026900001010160006800F0010000900098032033
:1026A000FFF7FBFA002200216FF00B00FFF702FB9F
:1026B000002200216FF00A00FFF7FCFA002200213F
:1026C0006FF00900FFF7F6FA002200216FF0040016
:1026D000FFF7F0FA002200216FF00300FFF7EAFA9B
:1026E000002200216FF00100FFF7E4FA0022002130
:1026F0004FF0FF30FFF7DEFA0548016821F0E06196
:102700000160026842F00072026001BD18100240D0
:1027100004000140F8B5044600270026002C7AD0BA
:1027200004F12405686820B9AE6028702046FFF7E0
:10273000E1F8204600F07AF96968CA066CD4010015
:102740006AD1696821F4885141F002016960236807
:10275000DFF8BC12E269D4F804C08B4204BFB2F5C2
:10276000402F4FF40022E16842EA0C02D4F808C07E
:10277000BCF5807F14BFBCF1010F4FF48077D4F813
:1027800014C0BCF1010F42EA41020FD131B9A16975
:10279000491E490341F400610F4307E0696841F0B5
:1027A00020016960A96841F00101A960596821F41C
:1027B00069410F435F602368DFF858129F680F403C
:1027C00017439F60A168B1F5807F18BF012902D12E
:1027D0002669761E36052168CB6A23F470031E43F2
:1027E000CE622468DFF83012A3680B40934208D110
:1027F0000021A960696821F0020141F001016960CE
:10280000F2BD686820F0020040F010006860A8681F
:1028100040F00100A86003E0686840F010006860C4
:102820000120F2BD10B5044621684868820622D511
:102830000A6890071FD5A06AC20603D4A06A40F4B4
:102840000070A06200F05AF804BFE06800280BD1C5
:102850004A6822F020024A60A06A20F48070A062D8
:10286000A06AC10400F050F8204600F0EDF921689C
:102870006FF0120008602168486802062BD50A68CC
:10288000500728D5A06AC20603D4A06A40F40050BD
:10289000A062886800F4E040B0F5E04F08D04868D6
:1028A000420511D400F02AF804BFE06800280BD1DB
:1028B0004A6822F080024A60A06A20F48050A06238
:1028C000A06AC10500F020F8204600F0BFF9216899
:1028D0006FF00C000860206841684A060DD500685A
:1028E000C1070AD5A06A40F48030A062204600F0FB
:1028F000AEF921686FF00100086010BD886800F42F
:102900006020B0F5602F704703D4A06A40F001004A
:10291000A0627047F8B50A46002100F12403009137
:102920001C78012C01D10220F2BD01251D701F274A
:10293000546815680668072C08D2641E04EB8404EA
:10294000D6F834C000F05EF8756312E00D2C08D2A2
:10295000E41F04EB8404D6F830C000F053F835636C
:1029600007E00D3C04EB8404D6F82CC000F04AF8D4
:10297000F56207271668946805680A2E08D30A3E90
:1029800006EB4606D5F80CC000F036F8EC6006E021
:1029900006EB4606D5F810C000F02EF82C6114683E
:1029A000102C18BF112C23D100681D4CA0421AD145
:1029B0001C48046825021BD4056845F40005056021
:1029C0001068102814D1154C17482568B5FBF0F095
:1029D0000A2250430090009800281EBF009A521E01
:1029E0000092F8D104E00121586840F020005860BE
:1029F000002018700846F2BDB7402CEA0707B44023
:102A00003C437047A7402CEA0707A5403D43704769
:102A1000003C0140FDF7E1FFFE0E1FFF000000201B
:102A2000002401400824014040420F0038B504460C
:102A300020688168CA0719D5816849084900816002
:102A4000FDF77EFF054620688168C8070ED5FDF7B3
:102A500077FF401B0328F6D3A06A40F01000A06265
:102A6000E06A40F00100E062012032BD002032BD8A
:102A7000F8B5040001D10120F2BD04F13C056878ED
:102A800020B9002129702046FEF7AEFF00F054F86F
:102A9000FEF7B0FB0146DFF8B000DFF8B030B1FB65
:102AA000F0F2206842606068984206D34FF4967056
:102AB00042434FF47A76B2FBF6F22768521C3A6230
:102AC00066689E4208D27600B1FBF6F0C0F30B01B7
:102AD000042913D2042011E0A06820B906EB4606B1
:102AE000B1FBF6F005E019225643B1FBF6F040F4D5
:102AF000804001050CBF012040F400402168C861FE
:102B0000E269206A0243206802602169E0680143AB
:102B1000206881606169A06901432068C160206804
:102B2000016841F0010101600020686020206870A8
:102B300000202063A870F2BD24206870206801681E
:102B4000490849000160704740420F00A18601001A
:102B500010B5040001D1012010BD0020A06294F83E
:102B6000510010B92046FEF7A6FF022184F851104B
:102B70002068016821F0400101606268A068A169D5
:102B80000243E0680243206902436069024301F4A2
:102B90000071E0690A430243206A0243A06A0243CB
:102BA00020680260A169606A090C01F00401014318
:102BB000206841602068E16A01612068C16921F4F0
:102BC0000061C16100206065012084F8510000208F
:102BD00010BD000030B500F13C031A78012A01D184
:102BE000022030BD01241C7002225A700268546811
:102BF00024F070045460046865680A6815436560D1
:102C00000268946824F080049460026894684868BC
:102C100004439460012058700020187030BD704744
:102C20007047704770477047704731B5FDF788FEB1
:102C3000009D15F1010F044618BF6D1CFDF780FEC5
:102C4000001BA842FAD331BD70470000704770479F
:102C50007047FEE7FEE7FEE7FEE770477047704704
:102C600080B500F03DF8BDE80140FFF777B81248A5
:102C7000FDF770BF1148FDF76DBF1148FDF76ABF42
:102C80001048FDF767BF1048FDF764BF0F48FFF716
:102C9000C9BD0F48FFF790B810B50E4C2046FFF79E
:102CA000F7FA2046BDE81040FDF750BB0A48FDF793
:102CB0004DBB0A48FFF780B8CC110020541000200B
:102CC0001010002098100020DC10002010130020AD
:102CD0001012002090120020D0120020501200206C
:102CE00002480168491C0160704700BF9013002032
:102CF0000E49086840F0010008604A680C4802402C
:102D00004A600B680B4803400B60086820F4802081
:102D100008604FF41F004A6822F4FE024A6088608F
:102D20004FF0006004490860704700000010024046
:102D30000000FFF8FFFFF6FE08ED00E000000000D5
:102D400000000000010203040607080919E050F81A
:102D5000042BD30744BFA9F101039A18091F0023CC
:102D6000042942F8043BF9D25FEA817C134604D57A
:102D70004FF0000CA2F800C09B1CC90744BF002103
:102D8000197050F8041B0029E1D1704710B450F8B5
:102D9000041B79B10268436802440830DC0744BF71
:102DA000A9F10104E31852F8044B43F8044B091F3E
:102DB000F9D1ECE710BC704710B5074979441831D8
:102DC000064C7C44163404E00A68081D1144884708
:102DD0000146A142F8D110BD080000002800000003
:102DE0006DFFFFFF901300000400002000000000B2
:102DF0009DFFFFFF040000004001000000000020D4
:102E00000000000000F00DF8002801D0FFF7D4FF0B
:102E1000AFF300800020AFF30080FEF71DFA00F052
:102E200002F80120704700F001B80000074638465C
:102E300000F002F8FBE7000080B5AFF30080024A23
:102E400011001820ABBEFBE72600020001488047B6
:102E500001480047F12C00085D2E0008AFF3008008
:102E6000AFF30080FFF7CEFF000000000102030473
:102E7000FFF7FEBFFFF7FEBFFFF7FEBFFFF7FEBF86
:102E8000FFF7FEBFFFF7FEBFFFF7FEBFFFF7FEBF76
:102E9000FFF7FEBFFFF7FEBFFFF7FEBFFFF7FEBF66
:102EA000FFF7FEBFFFF7FEBFFFF7FEBFFFF7FEBF56
:102EB000FFF7FEBFFFF7FEBFFFF7FEBFFFF7FEBF46
:102EC000FFF7FEBFFFF7FEBFFFF7FEBFFFF7FEBF36
:102ED000FFF7FEBFFFF7FEBFFFF7FEBFFFF7FEBF26
:102EE000FFF7FEBFFFF7FEBFFFF7FEBFFFF7FEBF16
:102EF000FFF7FEBFFFF7FEBFFFF7FEBFFFF7FEBF06
:102F0000FFF7FEBFFFF7FEBFFFF7FEBFFFF7FEBFF5
:102F1000FFF7FEBFFFF7FEBFFFF7FEBFFFF7FEBFE5
:102F2000FFF7FEBFFFF7FEBFFFF7FEBFFFF7FEBFD5
:0C2F3000FFF7FEBFFFF7FEBF00A24A043F
:0400000508002E5D64
:00000001FF
