:020000040800F2
:10000000C0170020613E0008553C0008573C00081E
:10001000593C00085B3C00085D3C00080000000003
:100020000000000000000000000000005F3C00082D
:10003000613C000800000000633C0008653C0008CB
:10004000853E0008893E00088D3E0008913E00086C
:10005000953E0008993E00089D3E0008A13E00081C
:10006000A53E0008A93E0008AD3E0008733C00080C
:10007000B13E0008B53E0008793C00087F3C00080E
:10008000853C00088B3C0008913C0008B93E000804
:10009000BD3E0008C13E0008C53E0008C93E00083C
:1000A000CD3E0008D13E0008D53E0008D93E0008EC
:1000B000DD3E0008E13E0008973C0008E53E0008F0
:1000C000E93E00089D3C0008A33C0008ED3E000806
:1000D000F13E0008A93C0008BD3C0008F53E0008C0
:1000E000F93E0008FD3E0008013F0008053F0008FA
:1000F000093F00080D3F0008113F0008153F0008A8
:10010000193F00081D3F0008C33C0008213F0008BC
:10011000253F0008293F00082D3F0008313F000817
:10012000353F0008393F00083D3F0008413F0008C7
:10013000F8B5040001D10120F2BD04F13C05687856
:1001400020B900212970204600F078FF00F054F813
:1001500001F0F4F90146DFF8C801DFF8C831B1FB5E
:10016000F0F2206842606068984206D34FF49670BF
:1001700042434FF47A76B2FBF6F22768521C3A6299
:1001800066689E4208D27600B1FBF6F0C0F30B0120
:10019000042913D2042011E0A06820B906EB46061A
:1001A000B1FBF6F005E019225643B1FBF6F040F43E
:1001B000804001050CBF012040F400402168C86167
:1001C000E269206A0243206802602169E068014315
:1001D000206881606169A06901432068C16020686E
:1001E000016841F001010160002068602020687012
:1001F00000202063A870F2BD242068702068016888
:1002000049084900016070472DE9FC4700F0ACF84F
:1002100000F080F843D100F09FF800283FD13878F3
:1002200001283CD000F05CF8212000F047F800F0F5
:1002300081FD40B17868042802D1002139702AE09C
:100240000020387029E000F05DF8308D002829D0BA
:1002500000F06FF8C8B900F071F800F079F8308D4F
:10026000401E308531684A69530706D580B220B1F7
:10027000706A421C726200F018F800F055F800280D
:10028000E3D07868042808D102E07868042804D113
:10029000306800F07DF8012002E0032000E0022039
:1002A000BDE8F68700F066F8FAE700780861708D1F
:1002B000411E7185308D411E3185704778702A4608
:1002C0001020B870414600207860C6F82490A6F847
:1002D0002AA0DFF8B800F062708D30853046704794
:1002E0000121397030680168CA0703D4026842F0FE
:1002F00001020260234630680A9D016821F4006112
:1003000001607047009030684169009180690090F9
:100310000099704706F13C0704467878202870471A
:1003200040420F00A186010022462946304600F0D7
:1003300026BE22462946304600F007BE706A411CA0
:1003400071623168007808617047308D411E3185D7
:10035000708D411E71857047009419230122DFF8CA
:100360005014304600F07ABD0646884691469A46BB
:1003700001F016B93068016841F400710160202075
:1003800078700020B8703870704700000000FFFFE0
:10039000016841F4007101607047DFF81008E06205
:1003A00070472068016841F48071016070472DE951
:1003B000F84F044604F13D022168DFF8108AD1F8B5
:1003C00018904E694F685078DFF87C55DFF800AA26
:1003D000DFF820BADFF820CA102818BF40286ED1F5
:1003E00016F0011F04F144032ED0B8053ED5507815
:1003F000402809D1D86818B91A6802F0FE0221E035
:10040000186840F0010026E02069B0F5804F0BD15C
:100410001278212A03D1186800F0FE001CE01A6847
:1004200042F00102D2B20DE0D86820B900F0C6F85F
:1004300042F0F00206E0D868012817D100F0BEF8BB
:1004400042F0F1020A6111E0DFF8B009064205D07E
:10045000BA050BD51868C0B2086107E016EA0C0FA0
:1004600004D0B80544BF204600F080FA19EA0B0F0B
:1004700012D016EA0A0F07D0780505D52E4203D10F
:100480002046BDE8F24F0BE12E4245D0B8055CD5C1
:100490002046BDE8F24F67E116EA080F07D078055D
:1004A00005D52E4203D12046BDE8F24FA9E12E42E8
:1004B00032D0B80549D52046BDE8F24FFBE116EA37
:1004C0000C0F12D0B8051AD58A6989690020530724
:1004D00058BF01200A060146204654BFE268A269BF
:1004E000BDE8F84F92B201F061B8DFF81409064296
:1004F00005D0BB0503D52046BDE8F24FEAE219EA74
:100500000B0F2CD016EA0A0F1CD078051AD52E42F4
:1005100018D11378608D00284ED0606A451C656242
:100520000078086100F050F808BF292B44D100F092
:1005300051F821202063282010702046BDE8F24F9A
:1005400001F035B82E4237D0B80535D5608D00287A
:1005500032D0606A421C62620078086129E016EAC3
:10056000080F1BD0780519D52E4217D11378608D4E
:1005700010B3606A451C65620969017000F024F8D7
:1005800008BF2A2B18D100F025F82220206328204C
:1005900010702046BDE8F24F01F00AB82E420BD091
:1005A000B80509D5608D38B1606A421C626209697C
:1005B0000170608D411E6185BDE8F18F1A681204DB
:1005C000D20D02F006027047608D411E6185608D7C
:1005D000002870472068416821F4806141607047BD
:1005E000F8B50446DFF81C182068456946680D42D6
:1005F0000DD0F20518D5216C41F0010121646FF492
:10060000807242612068016841F40041016015F484
:10061000813F09D0F0053CD5206C40F002002064F9
:100620006FF400712068416115F4823F24D0F00519
:100630002FD504F13D004778618D0278236B202F80
:1006400008BF00290BD1212A18BF292A03D0282A44
:1006500008BF212B03D1204600F0AAFA0CE0216C40
:1006600041F0040121644078102801D100F0B6FB6C
:100670006FF480602268506115F4843F09D0F00562
:1006800007D5206C40F0080020646FF400612268F8
:100690005161206C18B12046BDE8F240C4E2F1BDC2
:1006A00038B500F13D0213785478C56A018D0029F0
:1006B00008BF212B16D1042D1EBF082DDFF84817C7
:1006C0008D4202D000F080F809E000F089F804D1F2
:1006D0000023537000F06DFF44E00021517000F0E2
:1006E00069FF3FE0212B03D0402C08BF222B39D1DA
:1006F000418D11B900F0D3F834E0517840292FD161
:1007000000F14803996889B900685968012905D141
:100710001A68D2B202619868801C05E01968090461
:10072000090E01619868401C98601BE099680129D6
:1007300007D11A680068D2B202619968491C9960B1
:1007400010E0996802290DD11378222B05D1006899
:10075000016841F48071016004E01278212A01D11E
:1007600000F028F8002032BD10B5C36A00F13D0248
:100770001478212C1AD1418D11B100F01BF815E02D
:10078000042B1EBF082BDFF880168B4202D000F02E
:100790001BF809E000F024F804D10023537000F0A6
:1007A00008FF03E00021517000F004FF002010BD9D
:1007B00002001000416A4A1C426202680978116115
:1007C000418D4A1E4285704701684B6823F4E063FF
:1007D0004B6011210163002151702021117070477D
:1007E00001684B6823F4E0634B6001680B6843F4D5
:1007F00000730B60002101632021117051784029A2
:10080000704710B500F13D010A78222A45D1428D8A
:10081000042A02D300F09AF83FE0022A18BF032A04
:1008200013D10168C26A0B68022A08D023F48063DE
:100830000B6001680A6842F400620A6002E043F457
:1008400080630B6000F02BF827E00268C36A022B7C
:1008500004D0146824F48064146003E0136843F443
:100860008063136000F021F8426A531C43620368FE
:100870001C691470428D531E4385002220230B7087
:1008800002634A78402A04D100234B7000F093FEA3
:1008900003E000224A7000F08FFE002010BD0068C7
:1008A000416821F48061416070470268536823F415
:1008B000E0635360704780B5C16A438DDFF8482517
:1008C000032B07D104291CBF0829914237D100F01E
:1008D000F2F834E0438D022B31D104291CBF0829E2
:1008E00091420ED00268022904D0116821F480617F
:1008F000116003E0136843F48063136000F030F884
:1009000006E000F02DF801680A6842F400720A60FF
:1009100000F01CF800F01AF800F13D0120220A70E6
:10092000002202634A78402A04D100234B7000F071
:1009300042FE06E000224A7000F03EFE01E000F0B8
:1009400005F8002002BD000004000100416A4A1CB5
:100950004262026813690B70418D4A1E42857047DE
:1009600001684A6822F440724A60704738B500F165
:100970003D014A78C36A046B0D78222D40F08580D2
:10098000016D002908BF402A02D1002200927EE0BA
:10099000016D002904BF0269B2F5404F07D100F094
:1009A00081F842F480720A60016D491C6BE0418D50
:1009B00011B9002200922BE0418D012933D1DFF8DB
:1009C000482493420DD100F076F801684A68130577
:1009D00010D4002200924B6900938A690092009B18
:1009E0001CE0042B1CBF082B122C0DD00168C26A1E
:1009F000022A04D00B6823F480630B6040E00A688D
:100A000042F480620A603BE000F055F8002100915A
:100A100001684A6900928B690093009A0A6842F45F
:100A200000720A602EE00168428D022A1CD1C36A5E
:100A3000022B0AD00A6842F400620A60002100F02A
:100A400031F822F480620A6005E00B6843F48063A9
:100A50000B6000F036F801684A68130512D54A6841
:100A600042F480524A600DE00B6843F480630B60EF
:100A700001684A68130503D54A6842F480524A6007
:100A800000F01FF80021016504E0002100910068DA
:100A900000F002F8002032BD4169009180690090A9
:100AA00000997047009101684A6900928B69009330
:100AB000009A0A68704701680A6822F480620A6036
:100AC00070470021009101684A690092896900918C
:100AD000009A70477CB500F13D02137801684C68BC
:100AE00024F4E0644C600021009101684C6900949A
:100AF0000D6845F001050D60009901680C6824F44B
:100B000080640C60046861680D050DD51578222D90
:100B10001CBF11782A2903D1856B29684E6802E031
:100B2000416B0D686E684685418DD1B16569690775
:100B300007D5416A4D1C456224690C70418D4C1EDD
:100B4000448501684C69650607D5446A651C4562A1
:100B500009692170418D4C1E4485016C41F00401EE
:100B60000164016C11B100F05FF81CE0282B1CBF80
:100B70002A2B292B0BD1DFF89012C16200210163CF
:100B8000202111700021517000F017FD0BE0016B66
:100B9000222918BF222B06D10023036320211170C4
:100BA000537000F005FD002076BD00000000FFFF3F
:100BB00038B500F13D016FF480620B78C46ADFF84C
:100BC0004852042C14BF082C282B15D1C562036889
:100BD0005C6824F4E0645C6003685A61026814682D
:100BE00024F4806414600022026320220A70002230
:100BF0004A7000F0E2FC15E0212B11D1C5620363BD
:100C000020230B7000234B7001684B6823F4E063D2
:100C10004B6001684A61FFF74EFF00F0C8FC01E03D
:100C200000684261002032BD38B5044604F13D053C
:100C30002878292818BF2A2804D1002020632820DA
:100C400028700BE02878602805D0216848680105E5
:100C50005CBF2021297000202063687000F05CF8E0
:100C6000206841680A0523D5416821F4006141608C
:100C7000606B0FF2991190F82120012A09D041638D
:100C8000606B00F031FD002829D000F04BF8606B5C
:100C90000BE0A06B4163A06B00F026FDF8B120686B
:100CA00000F031F800F03EF8A06B416B884716E089
:100CB000297860290ED120222A700022226400F0B7
:100CC00022F820680168490849000160204600F0C8
:100CD00086FE04E000F017F8204600F081FE287838
:100CE00028280FD1216C48070CD5FFF756FB0020B0
:100CF000206320202870002068702046BDE8324024
:100D000000F05BBC31BD41694A0604D5616A4A1CEA
:100D100062620069087070472068016821F4006110
:100D2000016070472068016849084900016020207F
:100D300028707047F8B504460D46E06A04281EBFC7
:100D400001283149884216461F4602D1FFF729FB88
:100D500003E0206B122800F031F80097334600F0D2
:100D600028F810BB2069B0F5804F04D1216805F048
:100D7000FE050D610EE0E809216800F0060040F074
:100D8000F00008613B4632461C4900F030F838B9A3
:100D900000F020F83B463246174900F028F828B109
:100DA000206C042801D10120F2BD0320F2BD009681
:100DB000534600224FF0011120464FE004D1206835
:100DC000036843F480730360704700004000010033
:100DD000800001002068EDB205617047206801685D
:100DE00041F400710160704733464A46414620464F
:100DF0006AE0000004001000020001000800010089
:100E000010000100000101000000FFFF406A0168BE
:100E10000A6822F480620A6000214185426B5163B6
:100E2000826B516300F13D010B78602B0BD12022C6
:100E30000A7000224A70026401680A68520852006F
:100E40000A6000F0CCBD20230B7000224A700168BC
:100E50000A68520852000A6000F0C2BD2DE9F8434A
:100E60000F46089C3D020646904699462D0E306876
:100E7000012D1ED14069384080B2B9B288421ED0DF
:100E8000002040451DD119F1010FF0D0B9F1000F3C
:100E900004D000F085FB001B8145E8D200203063C0
:100EA000202106F13C004170002181700170032077
:100EB00008E08069384080B2B9B28842E0D10120B0
:100EC000DFE70020BDE8F2832DE9FC410F463E023A
:100ED000054614469846360E2868012E18D14169F9
:100EE000394089B2BAB2914218D041694A0517D542
:100EF000026842F4007202606FF480602968486101
:100F000005F13C0004224260002100F05FF81AE085
:100F10008169394089B2BAB29142E6D1002012E02B
:100F200014F1010FD8D02CB100F03AFBA0EB08006F
:100F30008442D1D200202863202105F13C00417079
:100F4000002101700320BDE8F68170B505460C460E
:100F500016462868416908060FD4284600F03DF877
:100F600008B1012070BD14F1010FF2D024B100F0DE
:100F700017FB801B8442ECD21BE0002070BD70B5D3
:100F800005460C4616462868416948070FD428468E
:100F900000F023F808B1012070BD14F1010FF2D068
:100FA00024B100F0FDFA801B8442ECD201E0002065
:100FB00070BD05F13C000022416841F02001416014
:100FC0002A63202141700270032070BD2963202113
:100FD0004170002101700120704701684A69530582
:100FE0000DD56FF480634B6100F13C0104224A602F
:100FF00000220263202048700A7001207047002000
:101000007047000080B51C481C4901601C494160C4
:1010100000218160C1604FF4804101610021416184
:101020008161C1610162FFF783F830B1BDE804401E
:1010300042210FF2580000F0D4BE01BD00680F49F4
:10104000884200D07047F8B54FF4406100911220FB
:1010500003210190039169460A4800F0C3FE0A4843
:10106000016841F480010160006800F48000009094
:10107000009805B000BD0000781100200058004025
:10108000A0860100000C01401C100240453A5C554E
:10109000736572735C626572747A5C446F63756DBC
:1010A000656E74735C4769744875625C4253507630
:1010B000312E345C5372635C6932632E630000002E
:1010C0002DE9F8430646DFF898543078C1074AD531
:1010D000686800F00C00042807D0686800F00C0075
:1010E00008280BD16868C10308D5296888033AD558
:1010F0007068002840F0C080012069E17068B0F598
:10110000803F0FD038B9296821F4803129602868E0
:1011100020F4802009E0B0F5A02F296807D141F420
:1011200080212960286840F48030286006E021F49E
:10113000803129602A6822F480222A60706868B1B0
:1011400000F02EFA04462968880300F1958000F02B
:1011500027FA001B6528F6D3032039E100F020FAB6
:1011600004462868810340F1878000F019FA001BCB
:101170006528F6D3F0E700F013FA001B022840F2CE
:10118000AA80E9E7306970B10121396000F008FAFE
:1011900004462868810700F1DC8000F001FA001B9A
:1011A0000228F6D9D8E7386000F0FAF90446286832
:1011B000810765D500F0F4F9001B0228F7D9CBE7C9
:1011C000086000F0EDF90446686A810777D500F001
:1011D000E7F9001B0228F7D9BEE708B9286A09E039
:1011E0000528286A06D140F004002862286A40F0E9
:1011F000010005E0400840002862286A20F0040051
:10120000286241F28938F06868B100F0C9F9814676
:10121000286A810700F1AA8000F0C2F9A0EB09005A
:101220004045F5D398E700F0BBF98146286A81076D
:1012300040F19C8000F0B4F9A0EB09004045F5D3E3
:101240008AE700F0ADF9001B022840F2A28083E794
:1012500000F0A6F9001B022840F2B5807CE700F000
:10126000B9F804462868810140F1B18000F098F98E
:10127000001B0228F6D96FE73078DFF8F07281079B
:101280001BD5686810F00C0F09D0686800F00C00DE
:1012900008287FF477AF6868C1033FF573AF29680A
:1012A000880703D5306901287FF426AF2968706963
:1012B00021F0F80141EAC0012960317808071DD505
:1012C000B069DFF8AC1200283FF47AAF01220A605F
:1012D00000F066F90446686A81077FF54CAFDFF8D5
:1012E00084120868C0084FF47A72B0FBF2F20092E0
:1012F00000BF0098411E00280091F9D130784107C5
:1013000039D5E8690024C10009D4E86940F080506B
:10131000E8610124E86900F0805000900098DFF84F
:101320005482D8F80010C8051BD4D8F8000040F447
:101330008070C8F8000000F033F98146D8F800103A
:10134000C8050ED400F02CF9A0EB09006528F5D3F0
:1013500002E72868716920F0F80040EAC1002860BF
:10136000ABE7F06801287FF438AF3FE71CB1E869CC
:1013700020F08050E861F06948B3696801F00C0121
:1013800008293FF4B9AE02287FF469AF00F022F8D3
:101390000446286881013FF554AF306AB0F5803FBC
:1013A00005D16968B06821F400310143696069685A
:1013B000306A21F474110143706A014369600120AD
:1013C00000F009F80446286881017FF541AF00204C
:1013D000BDE8F2830020386600F0E2B82DE9F8435A
:1013E000654F05463868894600F00700484502D237
:1013F00000F07AF86CD12978594C880705D56168D6
:10140000A86821F0F001014361602878C10757D531
:101410006868012802D121688A0303E0022803D109
:1014200021688A0103D453E02268910750D561688E
:10143000890840EA8100606041F2893800F0B0F824
:101440000646686801280BD1606800F00C0004288B
:1014500036D000F0A5F8801B4045F5D303202DE0E1
:10146000022837D1606800F00C00082828D000F06E
:1014700097F8801B4045F5D3F0E72878410705D55C
:101480006168E86821F4E061014361602878010740
:1014900006D56068296920F4605040EAC1006060A8
:1014A00000F02CF862683549C2F30312895C2D4ABA
:1014B000C8401060002000F08FFD0020BDE8F283DE
:1014C000386800F007008145D7D200F00DF8D4D07D
:1014D0000120F3E7606810F00C0FF1D000F060F825
:1014E000801B4045F6D3B9E73968C90849EAC1010C
:1014F0003960386800F007004845704720490A689D
:1015000002F00C00082814D10FF28003C2F38340CC
:10151000D203185C0AD509680FF28003124AC1F39E
:101520004041595CB2FBF1F14843704715494843CB
:1015300070470D4870470B48006870470948104ACB
:10154000006813681049C3F3022206E005480C4AFC
:10155000006813680C49C3F3C222895CC840704715
:10156000001002400000002000127A0000004242F9
:10157000800442420070004000200240503D0008BC
:101580000410024000093D007C3E000802030405EF
:10159000060708090A0B0C0D0E0F101001020000BF
:1015A00001480068704700BFB813002070477047BB
:1015B00070477047704770477047704730B508B93B
:1015C000012030BD0268DFF8B0138A4200F1280321
:1015D00006D2DFF8A81300F02DF8DFF8A41305E019
:1015E000DFF8A01300F026F8DFF89C135961022100
:1015F00080F82110146841686FF30D140C43816862
:101600000C43C1680C4301690C4341690C43816977
:101610000C43C1690C431460002119605960996042
:10162000D9601961012180F82110002180F8201073
:10163000002030BD8C181425B4FBF5F4A4009C6187
:101640007047F8B50446002594F82000012801D120
:101650000220F2BD94F821000126012884F82060C0
:1016600024D1022684F8216004F12C06F56020685C
:1016700007687F087F000760204600F09FF9216817
:10168000306820B10A6842F00E020A6008E008687B
:1016900020F0040008602068016841F00A01016040
:1016A0002068026842F00102026002E084F82050E3
:1016B00002252846F2BD10B501680A6822F00E0224
:1016C0000A6000F13C020B685B085B000B600124C0
:1016D00051688C4011684C600122002180F8212063
:1016E00080F82010002010BDF8B590F821200024CB
:1016F000022A00F1340103D00420486001245FE095
:101700000268DFF88862136823F00E0313604FF459
:101710008077026815686D086D0015604FF480329F
:101720000368B3424FF4805519D9DFF84C62B342D5
:1017300008BF012210D0DFF85862B34208BF102260
:101740000AD0DFF85062B34208BF3A4604D0DFF84F
:101750004862B34208BF2A46DFF8403227E0DFF88C
:1017600040C263451CD0DFF83CC263451AD0DFF8A5
:1017700038C2634518D0DFF83472BB420EBF2A4628
:10178000DFF82C52AB4210D0DFF82852AB4208BF32
:101790004FF4801209D0B34207D14FF0807204E0B9
:1017A000012202E0102200E03A46DFF80C321A6013
:1017B000012280F8212080F82040096801B1884783
:1017C0002046F2BD2DE9F84F00F1280204275169A7
:1017D000734BD1F800E004686C4925689669DFF81E
:1017E000BC81DFF8B491DFF8ACA1DFF8A4B1DFF879
:1017F00088C1B7401EEA070F4AD06F0748D5256851
:10180000AD0603D4256825F0040525604FF4802437
:1018100007688F424FF480454FF4806611D96745C1
:1018200008BF04240AD05F4508BF402406D05745AE
:1018300008BF344602D04F4508BF2C46C8F80040C8
:1018400020E09F4217D0574B9F4216D0564B9F42E5
:1018500015D0564B9F420EBF2C46554B9F420FD082
:10186000544B9F4208BF4FF4800409D08F4207D1E8
:101870004FF0806404E0042402E0402400E0344699
:101880004D490C605168002974D0BDE8F44F0847F9
:101890000227B7401EEA070F4FD0AF074DD5256886
:1018A000AD0606D4256825F00A052560012480F8D8
:1018B00021404FF4003407688F424FF400554FF435
:1018C000007611D9674508BF02240AD05F4508BFDA
:1018D000202406D0574508BF344602D04F4508BFE4
:1018E0002C46C8F8004020E09F4217D02D4B9F4265
:1018F00016D02D4B9F4215D02C4B9F420EBF2C462D
:101900002B4B9F420FD02B4B9F4208BF4FF400142C
:1019100009D08F4207D14FF0007404E0022402E0A6
:10192000202400E0344624490C60002180F8201077
:101930001168F9B1BDE8F44F0847082101FA06F62D
:101940001EEA060F16D0290714D5216821F00E01D2
:101950002160012391698B4051694B600123002173
:10196000136180F8201080F82130916811B1BDE832
:10197000F44F0847BDE8F18F08040240F8FFFDBFAF
:1019800000000240F8FBFDBF00040240800002405E
:101990001C0402403004024044040240040402409B
:1019A000080002401C000240300002404400024097
:1019B000580002406C0002400400024038B5046C3C
:1019C0000125A540C46B6560046863604068102809
:1019D00002D1A260E16031BDA160E26031BD70471B
:1019E0007047000038B500F00BFB00F053F800F032
:1019F00019FB00F0A1FB00F0AFFBFFF703FB00F0C9
:101A000041FC00F0ADFC00F0CBFC00F043FD00F029
:101A10004CFD00F082F8DFF8A043DFF8A013DFF8F8
:101A2000A0530A20A08005208880DFF8980300F0EA
:101A30003AFEDFF8940300F036FE00F0DDFF01F01F
:101A4000EAF801F015FA002001F04CFA01F035F83F
:101A500001F091F8A87878B1E97831B9207C58B1D3
:101A6000217401F05CFAA87830B1E978012903D13A
:101A70007F21002001F042FA01F017F904F114006F
:101A800001F0B5F9607C0028E0D001F0F8F9002100
:101A90006174DBE700B5002195B001200D910B903A
:101AA000022112914FF480300C90012213904FF4D8
:101AB000E0110F9214910BA8FFF702FB00B1FEE7B3
:101AC0000F2102200091019000214FF480600291CB
:101AD0000390049168460221FFF780FC00B1FEE705
:101AE000022005904FF40041079105A801F046FA45
:101AF00000B1FEE7FFF71FFD4FF47A71B0FBF1F084
:101B000001F0F3FA042001F004FB002200214FF061
:101B1000FF3001F0C3FA15B000BD80B500220021EE
:101B2000252001F0BBFA252001F0D5FA0022002182
:101B3000262001F0B3FA262001F0CDFA0022002180
:101B4000322001F0ABFA322001F0C5FA0022002168
:101B50001E2001F0A3FA1E2001F0BDFA0022002190
:101B60000B2001F09BFA0B2001F0B5FA00220021B6
:101B70000E2001F093FA0E2001F0ADFA00220021B0
:101B80000F2001F08BFA0F2001F0A5FA00220021AE
:101B9000102001F083FA102001F09DFA00220021AC
:101BA000112001F07BFA112001F095FA00220021AA
:101BB000122001F073FA122001F08DFA00220021A8
:101BC000212001F06BFA212001F085FA002200218A
:101BD000222001F063FABDE80240222001F07BBA26
:101BE000F8B50646774832680168754C774D784FEE
:101BF00091423FD1102100F0F1F8E874082100F083
:101C0000EDF86875E97CA87C014311D1607A401C2D
:101C10006072C0B215280EDB0120207000206072B7
:101C2000E07840B90121E170A07000F037FF02E0D8
:101C3000002020706072697D287D014313D1A07A55
:101C4000401CA072C0B2152810DB0120607000207B
:101C5000A0722883E078012808D10020E170A070EC
:101C600000F01CFF02E000206070A072E87CA87405
:101C7000687D2875544832680168914240F09B8025
:101C8000287C4D4E401CC0B2042802DD0120307477
:101C900000206A8B2874521C92B2FA2092FBF0F05A
:101CA000FA2101FB102008B90120707441F289303B
:101CB000824202DB0120A87500226A834FF4804132
:101CC00000F08CF83D4A1070002804BF51780029BC
:101CD00011D1D079A0B990789188401C9070C0B291
:101CE00081420DD2907958B90121A17300209171E0
:101CF0009070D17104E00020A073D0800120107298
:101D0000012100F06BF83070002804BF71780029C1
:101D100010D1F07998B9B078B188401CB070C0B2D9
:101D200081420CD2B07950B90121B171B070F1711A
:101D3000617304E000206073F08001203072102194
:101D400030787070234800F018F92870002804BF1C
:101D50006978002910D1E879D8B9A878A988401CF9
:101D6000A870C0B2814214D2A87990B90121A9719A
:101D7000A870E97121730CE0A97900291FBF687C64
:101D800000280021697400202073A870E8800120D9
:101D9000287228786870E868512824BF401EE860DF
:101DA000687C40B1E8690C49401C8842E86102D374
:101DB0000020E8616874F1BD40130020A0130020EA
:101DC0008C13002010120020501200206C130020F1
:101DD000000C014000100140A1860100384600F0CF
:101DE000CCB8FEE72DE9F84F83460F460020804629
:101DF0006A496B4A6B4B4FF00F094FF0010A3C6880
:101E00000AFA08F606EA040EB64540F0AE807C6891
:101E10003CB3012C1AD0022C1DD0032C2ED0112C37
:101E200016D0122C1AD0604DAC421CBF5F4DAC4294
:101E300017D05F4DAC421CBF5E4DAC4211D05E4D21
:101E4000AC421CBF5D4DAC420BD018E0F86816E008
:101E5000F868001D13E0F868083010E0F8680C30EE
:101E60000DE0B86808B9042009E0012819BF08206E
:101E7000CBF814600820CBF8106000E00020BEF51D
:101E8000807F03D2DC464FEA880404E0A8F108040E
:101E90000BF1040CA400DCF8005009FA04F6B54379
:101EA00000FA04F42C43CCF800407C68E4005CD5D4
:101EB0001C6844F001041C604FEA980C1D6805F092
:101EC00001050095009C52F82C604FEA880404F04C
:101ED0000C0409FA04F526EA0505394EB34508BF96
:101EE000002618D0374EB34508BF012613D0364E12
:101EF000B34508BF02260ED0344EB34508BF0326B3
:101F000009D0334EB34508BF042604D0314EB34543
:101F10000CBF0526062606FA04F42C4342F82C4092
:101F20006FEA0E067C68E50304D50D684EEA0505E8
:101F30000D6002E00C6834400C607C68A5034C68BE
:101F40004CBF4EEA040434404C607C68E5028C6867
:101F50004CBF4EEA040434408C607C68A502CC6817
:101F60004CBF4EEA04043440CC6008F10108B8F1DB
:101F70000F0F7FF644AFBDE8F18F8068084018BFAF
:101F80000120C0B2704781B002B90904016101B0FB
:101F90007047C2685140C1607047000000040140B2
:101FA000080001401810024000001110000012103B
:101FB000000021100000221000003110000032103B
:101FC00000080140000C01400010014000140140D5
:101FD00000180140001C014010B508490A68044679
:101FE0004FF47A70B2FBF0F001F07FF80022214646
:101FF0004FF0FF3001F052F8002010BD000000202B
:1020000080B50748016841F010010160032001F02C
:1020100038F80020FFF7E0FF01F098F8002002BD3B
:102020000020024078B53A483A4C3B4D85B00168F3
:1020300041F01001016042F2C606026802F010028F
:1020400004920499016841F020010160026802F0E5
:10205000200204920499016841F0040101600268C1
:1020600002F00402049200220499016841F0080180
:1020700001603146006800F0080004900498204692
:10208000FFF781FF00224FF432412846FFF77BFF24
:102090000120022101900391009600F049F84FF4CD
:1020A000887000900021012000F040F88920009005
:1020B0000021012000F034F84FF43240009001215B
:1020C00002200191039000F02DF84FF48040002190
:1020D00000900191029128466946FFF783FE4FF474
:1020E000007000900021022000F020F80420002160
:1020F00000900191029169460848FFF773FE102095
:1021000000900021022000F00BF806B070BD000026
:102110001810024000100140000C01400014014062
:102120000191029069462846FFF75CBE019102903A
:1021300069462046FFF756BE064881B0016841F067
:1021400001010160006800F001000090009801B0FA
:10215000704700BF141002403EB5374C37480FF2AD
:10216000F00520604FF48070A0600020E0606061A6
:102170004FF46020E0610020606002202061204672
:1021800001F02AF818B145212846FFF72AFE0D2054
:10219000009001210720019102906946204601F03C
:1021A0001BF918B14F212846FFF71BFE1020022112
:1021B000009001912046694601F00EF918B15821AE
:1021C0002846FFF70EFE37BD30B5044685B02068BF
:1021D0001A4988422ED11A481A4D016841F40071FB
:1021E00001600821006800F400700090032200984C
:1021F00015480191029201A9FFF7F4FD00206860E3
:10220000A8608020E8604FF4007028614FF40060FF
:1022100068612020A86100200C49E86129602846F7
:10222000FFF7CCF920B17C210FF22400FFF7D9FD94
:1022300025626C6205B030BD1013002000240140FF
:1022400018100240CC11002000100140080002408C
:10225000453A5C55736572735C5A67656E795C4488
:102260006F63756D656E74735C4769744875625C05
:1022700042535076312E345C5372635C6164632E3A
:102280006300000080B52548254901604FF4827144
:102290004160002181604FF40061C1600021016153
:1022A00041614FF4007181610821C1610021016227
:1022B000416281620A21C16201F03CF930B1BDE89E
:1022C000044045210FF26400FFF78BBD01BD00689B
:1022D0001349884200D0704718B51248124C85B097
:1022E000016841F480510160A021006800F4805031
:1022F000009002220098019103200490029201A90B
:102300002046FFF76FFD40200021019002910391CC
:10231000204601A9FFF766FD06B010BD2011002080
:10232000003001401810024000080140453A5C5559
:10233000736572735C5A67656E795C446F63756D23
:10234000656E74735C4769744875625C425350767D
:10235000312E345C5372635C7370692E630000002D
:102360003A4838B53A4C0FF2F805206086B047205D
:1023700060600020A060632000F03DF810B14021B3
:1023800000F036F800F02DF810B1462100F030F8DA
:1023900000F038F810B14D2100F02AF807B030BD38
:1023A0002C4838B52C4C0FF2B805206086B0472079
:1023B00060600020A06040F2E73000F01CF810B12F
:1023C0005F2100F015F800F00CF810B1652100F065
:1023D0000FF800F017F810B16C2100F009F807B001
:1023E00030BD4FF48050029002A9204600F01CBA84
:1023F0002846FFF7F6BCE06000202061A06120467F
:1024000000F044B90020009001906946204601F098
:10241000D3B881B000680D4A1049904207D10868CE
:1024200040F004000860096801F0040109E0094A6D
:10243000904208D1086840F008000860096801F07F
:1024400008010091009801B07047000000080040AA
:1024500010120020000C0040501200201C100240FE
:10246000453A5C55736572735C5A67656E795C4476
:102470006F63756D656E74735C4769744875625CF3
:1024800042535076312E345C5372635C74696D2E06
:102490006300000080B56848684900F011F818B181
:1024A000BDE8044048211AE001BD80B56448654993
:1024B00000F006F818B1BDE804405B210FE001BD53
:1024C00001604FF4E131416000218160C160016130
:1024D0000C21416100218161C16101F093B80FF2CB
:1024E0007810FFF77EBC2DE9F841044685B02068DE
:1024F000524A554D0FF26018544F554E554990426F
:102500003FD1086840F4804008600222096801F465
:10251000804104914FF4007100F085F84FF4806021
:1025200000F078F805F11400386000207860B86099
:102530008020F860002038617861B861F861384621
:10254000FFF73CF810B1862100F061F810206763B6
:10255000B8647C620020F8647D64802038650020C7
:102560007865B865F865386607F14400FFF726F826
:1025700010B1962100F04BF807F144002063BC66CF
:1025800042E0304A90423FD1486840F40030486011
:102590000222486800F400300490042100F043F85F
:1025A000082000F037F807F1880605F128003060B0
:1025B00000207060B0608020F060002030617061A9
:1025C000B061F0613046FEF7F9FF10B1C12100F0B3
:1025D0001EF86663746205F13C00706407F1CC0577
:1025E0001020B0640020F064802030650020706509
:1025F000B065F06530662846FEF7E0FF10B1D121E6
:1026000000F005F82563B46606B0BDE8F0814046E9
:10261000FFF7E7BB0090002101200191029069467D
:102620003046FFF7DFBB049800910320039001922E
:1026300069463046FFF7D6BB9012002000380140B3
:10264000D01200200044004044000240101000203E
:102650000008014018100240453A5C5573657273DA
:102660005C5A67656E795C446F63756D656E7473F3
:102670005C4769744875625C42535076312E345C15
:102680005372635C75736172742E630038B5040015
:1026900001D1012032BD00F01FF818B900F018F880
:1026A000FFF7B7FE0AE00068C16841F00101C160B0
:1026B000026842F001020260002070470220687048
:1026C000211D206800F01BF901206870002032BD38
:1026D000002129702046704704F13C056878704756
:1026E00010B50446206801698A0715D5C1688A07B4
:1026F00012D56FF00202026101212177806910F08A
:10270000030F204602D001F089FA03E001F087FAB6
:1027100000F087F800202077206801694A0715D566
:10272000C1684A0712D56FF00402026102212177C5
:10273000806910F4407F204602D001F06FFA03E078
:1027400001F06DFA00F06DF8002020772068016933
:102750000A0715D5C1680A0712D56FF00802026191
:1027600004212177C06910F0030F204602D001F048
:1027700055FA03E001F053FA00F053F800202077F7
:1027800020680169CA0615D5C168CA0612D56FF05E
:102790001002026108212177C06910F4407F2046B1
:1027A00002D001F03BFA03E001F039FA00F039F809
:1027B0000020207720680169CA0708D5C168CA07C8
:1027C00005D56FF0010202612046FFF709FA206883
:1027D00001690A0608D5C1680A0605D56FF08002AE
:1027E0000261204601F01CFA206801694A0608D5FA
:1027F000C1684A0605D56FF040020261204601F02B
:1028000010FA206801698A060AD5C1688A0607D5C8
:102810006FF0200202612046BDE8104001F002BACC
:1028200010BD204601F0FFB938B500F05DF801D1C8
:10283000022032BD01222270022060702A68DFF877
:1028400034019368034093600868002837D010284B
:1028500037D0202837D0302837D040282BD05028E8
:102860001ED0602820D070280BD0B0F5805F03D038
:10287000B0F5005F0CD02CE028688168C908C90059
:102880000CE000F028F82868816841F0770105E045
:1028900000F021F82868816841F48041816018E0E7
:1028A00000F01EF8502111E0CA684968286800F05D
:1028B0007CF860210AE000F013F8402106E00021D6
:1028C00004E0102102E0202100E03021286800F01F
:1028D0007EF80FE00000CB684A68896828687EE0CF
:1028E000CA684968286851E0054605F13C0420782B
:1028F00001287047012060700020207032BDF0B5C3
:10290000DFF874C01D4F03681D4C1E4D1E4E604500
:1029100018BFB84208D0B0F1804F18BFB04203D002
:10292000A84218BFA0420DD14A6823F07003134398
:10293000604518BFB84207D0B0F1804F1CBFB0420D
:10294000A84201D0A04203D1CA6823F440731343C4
:102950004A6923F080031343036060458A68C262BA
:102960000A68826212BFB8420969016301214161AC
:10297000F0BD00008800FFFF002C01400034014042
:10298000000C0040000800400004004010B5036A3D
:10299000046A64086400046223F00A03846924F072
:1029A000F00444EA0214846123E010B5036A23F0C2
:1029B000100303628369046A23F4704343EA023319
:1029C00024F0A004836144EA0114046210BD82680B
:1029D00022F07002114341F007018160704710B589
:1029E000846824F47F442143114341EA0321816038
:1029F00010BD1943016210BD10B501224FF4004112
:102A00006648674CFFF7BFFA012240212046FFF7D6
:102A1000BAFA012200F00EF862480021418041819B
:102A200041728174C173642001F0FEF8002010BD72
:102A30005B4C002280212046FFF7A5BA00F038F851
:102A4000002240212046FFF79EFA002010BD70B5FD
:102A500004462000514D524E06D100F015F80022D8
:102A600000F017F800F00BF8012C06D100F00CF87C
:102A7000012200F00EF800F002F8002070BD0022E4
:102A800040213046FFF77FBA002280213046FFF711
:102A90007ABA4FF400412846FFF775BA10B5404C9A
:102AA0000122FFF7C7FF012200F002F80122C8E768
:102AB0004FF400413948FFF766BA10B5394CE07B56
:102AC000002802BF38490878002852D16078217860
:102AD000D9B118B1FFF7E2FF012010BD217B002919
:102AE00004BF607B002844D1207C08B1217440E001
:102AF000617C012904BFA078002803D1E178012975
:102B000038D134E00120607433E0217C50B121B130
:102B1000E07810B90121217208E0607C48B3002000
:102B2000208210BDA07819B1D8B10020607410BD0A
:102B3000617CA9B188B1207B002804BF617B00299A
:102B400001D1A07BB0B1FFF7A9FF0021A170012046
:102B5000207400201549C87110BD0120E07007E005
:102B600038B90020E070012020740020607401203A
:102B70002072002010BD10B50A4C217A59B1A078FE
:102B800010B10021217206E00120A070E078FFF76B
:102B90005EFF00202072002010BD0000000C0140EC
:102BA000001001408C1300207D1300206C130020C6
:102BB00010B502460123107802E0145D60405B1CF2
:102BC0009CB28C42F9D3C0B210BD1CB5006801683C
:102BD000CA061FD5002000909C4C20680168009117
:102BE000406800902046009900F0EAFD606B0168A3
:102BF00048689749C0F50060488002B0087840F006
:102C0000010001F8040B4FF400622046BDE81040BB
:102C100000F08DBD13BD80B58C480168CA6842F0D4
:102C20001002CA604FF400628A4900F080FD002261
:102C300002218948FFF7A7F988495B2008705B21CA
:102C4000874801705D214171002002BDF8B504463E
:102C50000D461646804F012202213846FFF793F9B0
:102C600033462A462146794800F008FD04460022F2
:102C700002213846FFF787F9200018BF01242046BB
:102C8000F2BD10B5764CC17A6170017BA170032151
:102C9000407BE070601CFFF78BFF20714FF6FF72E6
:102CA0002046BDE810400621D0E7F8B5684A107804
:102CB000C10735D500F0FE0010706A4CA07C0028DA
:102CC00004BFE07C00282BD1E588208A5188634B23
:102CD000A84226D228B3002001E0401C80B28842DE
:102CE0001EDA268A02F1040E5F1D00EB060C1EF8A8
:102CF00000E007F80CE0761C2682B6B2B542ECD1B3
:102D0000511D0E5C2671104480795D2859D1ED1D4E
:102D1000E91E258100F068F8864260D10120E07448
:102D200060E0208900285DD115795B2D5BD1507959
:102D300000F0F005A02D04BF557A5D2D0FD1E07293
:102D4000032190792073D0796073501D157AA57393
:102D5000FFF72EFF854245D10120207542E020700B
:102D600096796670D779E770157AA5701D715870DD
:102D70009E70DF7005EB0725E580E08860B9907AEA
:102D80005D282FD10720557A20812571042100F07C
:102D90002CF88542C2D022E0052501E06D1CADB2C1
:102DA0008D421FDA161D765D5E55268A761CB7B2F7
:102DB000B8422682F2D102F10A01B6B2895D5D29DC
:102DC00003D000202082E08009E0511DC01D4D5D30
:102DD0002081C11E257100F007F885429ED0002099
:102DE0002081F2BD0020F2BD89B2581CE0E638B562
:102DF00004460025E07C012825D1217801F0F0016E
:102E0000B02914D1AB20E0722078B22810D1022171
:102E100021731549887838B9144B01221A700A7445
:102E20004D740A72CD7003E00120607300E0042548
:102E30002046FFF726FF0020A072E074E080E070DB
:102E4000A07020822081284632BD00009012002010
:102E50000C08002010080020001001400400002091
:102E6000B0130020541300208C1300207D13002089
:102E70000022FFE74FF400711748FFF784B838B518
:102E80001749164C087B144D80B14FF40051284669
:102E9000FFF77FF84FF480512846FFF77AF8204675
:102EA000BDE834404FF40051FFF773B801224FF4EE
:102EB00000512846FFF767F800224FF4805128465A
:102EC000FFF761F82046BDE8384001224FF4005179
:102ED000FFF759B800000000000C0140001001404D
:102EE0008C13002080B5224A0001107002230020BC
:102EF000507098214FF6FF7000900CE080B51C4A8E
:102F00000B0943EA0013137009014FF6FF73517068
:102F10000093982102231748FDF776F902BD1CB5EE
:102F2000154C2088401C80B240F22D118842A8BF69
:102F30004FF49670208020883D2806DA00EB400090
:102F40002830C1B20020FFF7D9FF2188782905DB9E
:102F5000C1F15401C9B20020FFF7D0FF20883D38ED
:102F60003B2803D2DC210020FFF7C8FF002016BD5C
:102F7000BC13002078110020841300202DE9FC41AF
:102F80000646354D3078C10750D5A8690024C100E8
:102F900009D4A86940F08050A8610124A86900F014
:102FA0008050009000982D4F3968C80517D43868B4
:102FB00040F480703860FEF7F3FA80463968C8053F
:102FC0000DD4FEF7EDFAA0EB08006528F6D3032038
:102FD0003FE0FEF7E5FAC01B404519D3F7E7E86983
:102FE00010F440701EBF716801F44071884212D025
:102FF0001B49E86901220A6020F4407000220A603F
:10300000E861C00707D5FEF7CBFA074641F28938D9
:10301000E8698107DDD5E969706821F440710143F1
:10302000E9611CB1A86920F08050A8613178880757
:1030300005D52A68B06822F4404202432A603078FD
:10304000C10605D52968706921F480010143296012
:103050000020BDE8F681000004100240007000402E
:10306000400442420901020081B006D52F4A00F017
:103070000F00104400F8041C01E02D4B195401B05E
:1030800070472C4A13684FF6FF0100020B4000F412
:10309000E0601843284908431060704738B5254B55
:1030A0001C68C4F30223C3F10704052C28BF0424C1
:1030B0001D1D072D34BF0023DB1E012505FA04F476
:1030C000641E2140994005FA03F35B1E1A40114328
:1030D000BDE83440C6E7012200F01F01174BFFE7AF
:1030E0008A40400943F82020704710B5401EB0F1D7
:1030F000807F01D3012010BD114C60600F214FF083
:10310000FF30FFF7AFFF0022A26007202060002001
:1031100010BD04280A4904D1086840F00400086082
:1031200070470A6822F004020A60704718ED00E058
:1031300000E400E00CED00E00000FA0500E100E032
:1031400010E000E000F000B87047000080B52048B3
:10315000016841F001010160006800F00100009089
:1031600000980320FFF78DFF002200216FF00B0075
:10317000FFF794FF002200216FF00A00FFF78EFF97
:10318000002200216FF00900FFF788FF00220021D4
:103190006FF00400FFF782FF002200216FF00300B0
:1031A000FFF77CFF002200216FF00100FFF776FFA0
:1031B000002200214FF0FF30FFF770FF0548016843
:1031C00021F0E0610160026842F00072026001BD1E
:1031D0001810024004000140F8B5044600270026FC
:1031E000002C7AD004F12405686820B9AE602870FC
:1031F0002046FEF7E9FF204600F07AF96968CA0622
:103200006CD401006AD1696821F4885141F002014F
:1032100069602368DFF8BC12E269D4F804C08B420D
:1032200004BFB2F5402F4FF40022E16842EA0C02DD
:10323000D4F808C0BCF5807F14BFBCF1010F4FF477
:103240008077D4F814C0BCF1010F42EA41020FD1DB
:1032500031B9A169491E490341F400610F4307E0F8
:10326000696841F020016960A96841F00101A96025
:10327000596821F469410F435F602368DFF85812F1
:103280009F680F4017439F60A168B1F5807F18BF0A
:10329000012902D12669761E36052168CB6A23F4FE
:1032A00070031E43CE622468DFF83012A3680B401F
:1032B000934208D10021A960696821F0020141F020
:1032C00001016960F2BD686820F0020040F0100062
:1032D0006860A86840F00100A86003E0686840F0FA
:1032E000100068600120F2BD10B5044621684868EE
:1032F000820622D50A6890071FD5A06AC20603D4A9
:10330000A06A40F40070A06200F05AF804BFE068C0
:1033100000280BD14A6822F020024A60A06A20F4FB
:103320008070A062A06AC10400F050F8204600F04E
:103330008AFC21686FF01200086021684868020664
:103340002BD50A68500728D5A06AC20603D4A06A04
:1033500040F40050A062886800F4E040B0F5E04F0F
:1033600008D04868420511D400F02AF804BFE0688C
:1033700000280BD14A6822F080024A60A06A20F43B
:103380008050A062A06AC10500F020F8204600F03D
:103390005BFC21686FF00C000860206841684A06F9
:1033A0000DD50068C1070AD5A06A40F48030A0623C
:1033B000204600F04AFC21686FF00100086010BD53
:1033C000886800F46020B0F5602F704703D4A06ACD
:1033D00040F00100A0627047F8B50A46002100F1F4
:1033E000240300911C78012C01D10220F2BD01259B
:1033F0001D701F27546815680668072C08D2641EC4
:1034000004EB8404D6F834C000F05EF8756312E073
:103410000D2C08D2E41F04EB8404D6F830C000F071
:1034200053F8356307E00D3C04EB8404D6F82CC058
:1034300000F04AF8F56207271668946805680A2EB6
:1034400008D30A3E06EB4606D5F80CC000F036F865
:10345000EC6006E006EB4606D5F810C000F02EF84A
:103460002C611468102C18BF112C23D100681D4C3E
:10347000A0421AD11C48046825021BD4056845F4F3
:10348000000505601068102814D1154C17482568F0
:10349000B5FBF0F00A2250430090009800281EBFB0
:1034A000009A521E0092F8D104E00121586840F0C1
:1034B00020005860002018700846F2BDB7402CEA82
:1034C0000707B4403C437047A7402CEA0707A540D4
:1034D0003D437047003C0140FDF7E1FFFE0E1FFF3A
:1034E00000000020002401400824014040420F0059
:1034F00038B5044620688168CA0719D5816849082B
:1035000049008160FEF74CF8054620688168C807CD
:103510000ED5FEF745F8401B0328F6D3A06A40F00D
:103520001000A062E06A40F00100E062012032BDBC
:10353000002032BD10B5040001D1012010BD0020D3
:10354000A06294F8510010B92046FEF7C0FE022197
:1035500084F851102068016821F040010160626820
:10356000A068A1690243E0680243206902436069E0
:10357000024301F40071E0690A430243206A0243F6
:10358000A06A024320680260A169606A090C01F028
:1035900004010143206841602068E16A01612068FC
:1035A000C16921F40061C16100206065012084F8D7
:1035B0005100002010BD000030B500F13C031A7826
:1035C000012A01D1022030BD01241C7002225A7050
:1035D0000268546824F070045460046865680A68DE
:1035E000154365600268946824F080049460026862
:1035F0009468486804439460012058700020187053
:1036000030BD000038B5040001D1012032BD00F00A
:1036100022F808B900F023F800F013F800F024F8BD
:10362000FFE7416100F001F832BD2068C16841F454
:103630000051C1600020686020206870A8700020E0
:103640007047242068702068C16821F40051C1606F
:10365000204600F06EBA04F1380568787047002102
:1036600029702046FEF73FBF2068016921F4904190
:1036700001612068416921F02A0170472DE9F84372
:10368000054605F138070C467878202816469846F6
:103690003CD1002C14BF002E012038D038780128EE
:1036A00034D0012139702120002179607870FDF734
:1036B00077FFAE848146EE8403E0296814F8010B9D
:1036C0004860E88C28B3E98C481EE8844B46A8681B
:1036D000CDF80080B0F5805F0DD100F024F870B90E
:1036E00020882968C0F3080048602869002814BFB2
:1036F000641CA41CE5E700F016F80028DDD00320C8
:1037000005E0202078700020387000E00220BDE83D
:10371000F283CDF800804B460022402100F005F8EE
:103720000028EED0EBE700228021284667E138B57B
:10373000044604F138051346A87820283ED109B183
:10374000180001D1012032BD2878012836D001228D
:103750002A70A162A385002068602220A870626B95
:103760000FF211209062626B0FF24120D062626B07
:103770000FF2412010630020626B50630A462068FC
:10378000011D606BFDF75DFF00200090206801685F
:10379000009142680092002200992A70C26842F4A7
:1037A0008072C2602068416941F001014161206876
:1037B000416941F040014161002032BD022032BD2B
:1037C00038B5044604F13905206841692A78212A70
:1037D00009D1090607D500F017F808B1FDF76BFF0E
:1037E000204600F03EF9206841696A78222A09D112
:1037F000490607D500F00EF808B1FDF75CFF20463A
:1038000000F038F9002032BD416921F080014161AA
:10381000206B7047416921F040014161606B704746
:1038200038B5044625682968EA686B6911F00F000D
:1038300007D188065DD590065BD52046BDE83240AD
:103840002CE1D80702D412F4907F52D0C80705D5D6
:10385000D00503D5E06B40F00100E063480705D5D3
:10386000D80703D5E06B40F00200E063880705D578
:10387000D80703D5E06B40F00400E063080705D5E6
:10388000D80703D5E06B40F00800E063E06B002848
:103890006ED0890604D5900644BF204600F0FEF89D
:1038A00020684069E16B0A0701D440061BD5204619
:1038B00000F0E0F8206841694A060FD5FFF7AAFF3B
:1038C00060B10FF2CD114163606BFDF70DFF002871
:1038D0004ED0606B416BBDE8344008472046BDE8E0
:1038E000324000F0B3B9204600F0B0F90020E063A8
:1038F00031BD08062CD510062AD594F839002128A8
:1039000036D1A168206AB1F5805F0DD10188C1F37D
:1039100008016960206918B9216A881C206207E0E3
:10392000206A411C216203E0411C2162007868602A
:10393000E08C401EE08480B2D0B92068C16821F0DC
:103940008001C1602068C16841F04001C16031BDA3
:1039500048060DD550060BD5E86820F04000E86019
:10396000202184F839102046BDE8324000F06FB9BC
:1039700031BD0000416A00680268930613D400203C
:10398000C8850868C26822F48072C260086842690B
:103990005208520042610868426922F040024261C6
:1039A000202081F83A00084600F052B9406A00F041
:1039B00050B9000038B5446A2068406904F13905FF
:1039C0002978212906D1000604D50020E08420466C
:1039D00000F047F8206840696978222906D140063E
:1039E00004D50020E085204600F044F8E06B40F06C
:1039F0001000E0632046BDE8324000F027B92DE911
:103A0000F041069C05460E4690461F462868016810
:103A10003140B1420CBF01200020404517D114F1C4
:103A2000010FF3D024B1FDF7BBFDC01B8442EDD2E2
:103A30002868C16821F4D07100F00CF805F1380055
:103A400020214170817000210170032000E00020DE
:103A5000BDE8F081C16028684169490849004161B9
:103A600070470168CA6822F0C002CA60202180F84D
:103A7000391070470168CA6822F49072CA60016800
:103A80004A69520852004A61202180F83A10704772
:103A9000406A0021C185C18400F0D8B880B590F893
:103AA0003A10222943D18268B2F5805F14D1826A2C
:103AB000016941B903685968C1F308011180826A3C
:103AC000911C816218E001684B6803F0FF031380CA
:103AD000816A4A1C82620FE001690029816A04D16F
:103AE0004A1C82620268536805E04A1C82620268CE
:103AF000536803F07F030B70C18D491EC18589B2E5
:103B000099B90168CA6822F02002CA600168CA68CF
:103B100022F48072CA6001684A69520852004A6100
:103B2000202180F83A1000F093F8002002BD022016
:103B300002BD2DE9F0470446642521680A69E06862
:103B400022F4405202430A611926CA6831480240F1
:103B5000A06802432069024360690243CA604A695F
:103B6000A06922F4407202432B484A6181420ED17F
:103B7000FDF7ECFC0746FDF7E9FC8046FDF7E6FCA7
:103B80008146FDF7E3FC8246FDF7E0FC0DE0FDF722
:103B9000D5FC0746FDF7D2FC8046FDF7CFFC8146F9
:103BA000FDF7CCFC8246FDF7C9FC06FB09F961680C
:103BB00089007743B7FBF1F206FB08F7B7FBF1F397
:103BC000B9FBF1F7B7FBF5F705FB17331B013233F0
:103BD000B3FBF5F3B2FBF5F203F0F00303EB0213D2
:103BE00006FB0AF74643B7FBF1F2B6FBF1F064219E
:103BF000B0FBF1F005FB10252D0132356420B5FB3B
:103C0000F0F0216800F00F00C3188B60BDE8F0876A
:103C100000000000F3E9FFFF0038014070477047E3
:103C2000704770477047704731B5FDF7B9FC009D8C
:103C300015F1010F044618BF6D1CFDF7B1FC001B08
:103C4000A842FAD331BD704770477047704770473C
:103C5000704770477047FEE7FEE7FEE7FEE77047F4
:103C60007047704780B500F045F8BDE80140FFF7A8
:103C700069BA1548FDF7A6BD1448FDF7A3BD144861
:103C8000FDF7A0BD1348FDF79DBD1348FDF79ABD94
:103C90001248FFF729BB1248FEF722BD1148FCF776
:103CA00086BB1048FCF79CBC10B50F4C2046FEF7B5
:103CB0008CFF2046BDE81040FFF7B2BD0B48FFF770
:103CC000AFBD0B48FEF70CBDCC11002054100020F6
:103CD0001010002098100020DC100020101300208D
:103CE000101200207811002090120020D012002025
:103CF0005012002002480168491C0160704700BF53
:103D0000B81300200E49086840F0010008604A68B6
:103D10000C4802404A600B680B4803400B6008687F
:103D200020F4802008604FF41F004A6822F4FE024D
:103D30004A6088604FF000600449086070470000E6
:103D4000001002400000FFF8FFFFF6FE08ED00E063
:103D5000000000000000000001020304060708093B
:103D600019E050F8042BD30744BFA9F101039A18B6
:103D7000091F0023042942F8043BF9D25FEA817C41
:103D8000134604D54FF0000CA2F800C09B1CC907D5
:103D900044BF0021197050F8041B0029E1D170477D
:103DA00010B450F8041B79B102684368024408302B
:103DB000DC0744BFA9F10104E31852F8044B43F8AF
:103DC000044B091FF9D1ECE710BC704710B5074947
:103DD00079441831064C7C44163404E00A68081D06
:103DE000114488470146A142F8D110BD08000000E7
:103DF000280000006DFFFFFFBC130000040000203E
:103E0000000000009DFFFFFF0400000038010000DB
:103E1000000000200000000000F00DF8002801D094
:103E2000FFF7D4FFAFF300800020AFF30080FDF771
:103E3000D9FD00F002F80120704700F001B8000041
:103E40000746384600F002F8FBE7000080B5AFF304
:103E50000080024A11001820ABBEFBE726000200DA
:103E60000148804701480047053D0008713E0008B1
:103E7000AFF30080AFF30080FFF7CEFF000000003B
:103E800001020304FFF7FEBFFFF7FEBFFFF7FEBF0F
:103E9000FFF7FEBFFFF7FEBFFFF7FEBFFFF7FEBF56
:103EA000FFF7FEBFFFF7FEBFFFF7FEBFFFF7FEBF46
:103EB000FFF7FEBFFFF7FEBFFFF7FEBFFFF7FEBF36
:103EC000FFF7FEBFFFF7FEBFFFF7FEBFFFF7FEBF26
:103ED000FFF7FEBFFFF7FEBFFFF7FEBFFFF7FEBF16
:103EE000FFF7FEBFFFF7FEBFFFF7FEBFFFF7FEBF06
:103EF000FFF7FEBFFFF7FEBFFFF7FEBFFFF7FEBFF6
:103F0000FFF7FEBFFFF7FEBFFFF7FEBFFFF7FEBFE5
:103F1000FFF7FEBFFFF7FEBFFFF7FEBFFFF7FEBFD5
:103F2000FFF7FEBFFFF7FEBFFFF7FEBFFFF7FEBFC5
:103F3000FFF7FEBFFFF7FEBFFFF7FEBFFFF7FEBFB5
:083F4000FFF7FEBF00A24A04D6
:0400000508003E7140
:00000001FF
